{
  "contractName": "Voting",
  "abi": [
    {
      "anonymous": false,
      "inputs": [
        {
          "indexed": true,
          "internalType": "address",
          "name": "previousOwner",
          "type": "address"
        },
        {
          "indexed": true,
          "internalType": "address",
          "name": "newOwner",
          "type": "address"
        }
      ],
      "name": "OwnershipTransferred",
      "type": "event"
    },
    {
      "anonymous": false,
      "inputs": [
        {
          "indexed": false,
          "internalType": "uint256",
          "name": "proposalId",
          "type": "uint256"
        }
      ],
      "name": "ProposalRegistered",
      "type": "event"
    },
    {
      "anonymous": false,
      "inputs": [
        {
          "indexed": false,
          "internalType": "address",
          "name": "voter",
          "type": "address"
        },
        {
          "indexed": false,
          "internalType": "uint256",
          "name": "proposalId",
          "type": "uint256"
        }
      ],
      "name": "Voted",
      "type": "event"
    },
    {
      "anonymous": false,
      "inputs": [
        {
          "indexed": false,
          "internalType": "address",
          "name": "voterAddress",
          "type": "address"
        }
      ],
      "name": "VoterRegistered",
      "type": "event"
    },
    {
      "anonymous": false,
      "inputs": [
        {
          "indexed": false,
          "internalType": "enum Voting.WorkflowStatus",
          "name": "previousStatus",
          "type": "uint8"
        },
        {
          "indexed": false,
          "internalType": "enum Voting.WorkflowStatus",
          "name": "newStatus",
          "type": "uint8"
        }
      ],
      "name": "WorkflowStatusChange",
      "type": "event"
    },
    {
      "inputs": [],
      "name": "owner",
      "outputs": [
        {
          "internalType": "address",
          "name": "",
          "type": "address"
        }
      ],
      "stateMutability": "view",
      "type": "function",
      "constant": true
    },
    {
      "inputs": [],
      "name": "renounceOwnership",
      "outputs": [],
      "stateMutability": "nonpayable",
      "type": "function"
    },
    {
      "inputs": [
        {
          "internalType": "address",
          "name": "newOwner",
          "type": "address"
        }
      ],
      "name": "transferOwnership",
      "outputs": [],
      "stateMutability": "nonpayable",
      "type": "function"
    },
    {
      "inputs": [],
      "name": "workflowStatus",
      "outputs": [
        {
          "internalType": "enum Voting.WorkflowStatus",
          "name": "",
          "type": "uint8"
        }
      ],
      "stateMutability": "view",
      "type": "function",
      "constant": true
    },
    {
      "inputs": [
        {
          "internalType": "address",
          "name": "_addr",
          "type": "address"
        }
      ],
      "name": "getVoter",
      "outputs": [
        {
          "components": [
            {
              "internalType": "bool",
              "name": "isRegistered",
              "type": "bool"
            },
            {
              "internalType": "bool",
              "name": "hasVoted",
              "type": "bool"
            },
            {
              "internalType": "uint256",
              "name": "votedProposalId",
              "type": "uint256"
            }
          ],
          "internalType": "struct Voting.Voter",
          "name": "",
          "type": "tuple"
        }
      ],
      "stateMutability": "view",
      "type": "function",
      "constant": true
    },
    {
      "inputs": [
        {
          "internalType": "uint256",
          "name": "_id",
          "type": "uint256"
        }
      ],
      "name": "getOneProposal",
      "outputs": [
        {
          "components": [
            {
              "internalType": "string",
              "name": "description",
              "type": "string"
            },
            {
              "internalType": "uint256",
              "name": "voteCount",
              "type": "uint256"
            }
          ],
          "internalType": "struct Voting.Proposal",
          "name": "",
          "type": "tuple"
        }
      ],
      "stateMutability": "view",
      "type": "function",
      "constant": true
    },
    {
      "inputs": [],
      "name": "getAllProposals",
      "outputs": [
        {
          "components": [
            {
              "internalType": "string",
              "name": "description",
              "type": "string"
            },
            {
              "internalType": "uint256",
              "name": "voteCount",
              "type": "uint256"
            }
          ],
          "internalType": "struct Voting.Proposal[]",
          "name": "",
          "type": "tuple[]"
        }
      ],
      "stateMutability": "view",
      "type": "function",
      "constant": true
    },
    {
      "inputs": [],
      "name": "getWinningProposalsID",
      "outputs": [
        {
          "internalType": "uint256[]",
          "name": "",
          "type": "uint256[]"
        }
      ],
      "stateMutability": "view",
      "type": "function",
      "constant": true
    },
    {
      "inputs": [
        {
          "internalType": "address",
          "name": "_addr",
          "type": "address"
        }
      ],
      "name": "addVoter",
      "outputs": [],
      "stateMutability": "nonpayable",
      "type": "function"
    },
    {
      "inputs": [
        {
          "internalType": "address",
          "name": "_addr",
          "type": "address"
        }
      ],
      "name": "deleteVoter",
      "outputs": [],
      "stateMutability": "nonpayable",
      "type": "function"
    },
    {
      "inputs": [
        {
          "internalType": "string",
          "name": "_desc",
          "type": "string"
        }
      ],
      "name": "addProposal",
      "outputs": [],
      "stateMutability": "nonpayable",
      "type": "function"
    },
    {
      "inputs": [
        {
          "internalType": "uint256",
          "name": "_id",
          "type": "uint256"
        }
      ],
      "name": "setVote",
      "outputs": [],
      "stateMutability": "nonpayable",
      "type": "function"
    },
    {
      "inputs": [
        {
          "internalType": "uint256",
          "name": "_num",
          "type": "uint256"
        }
      ],
      "name": "setWorkflowStatus",
      "outputs": [],
      "stateMutability": "nonpayable",
      "type": "function"
    },
    {
      "inputs": [],
      "name": "nextWorkflowStatus",
      "outputs": [],
      "stateMutability": "nonpayable",
      "type": "function"
    },
    {
      "inputs": [],
      "name": "tallyVotesDraw",
      "outputs": [],
      "stateMutability": "nonpayable",
      "type": "function"
    },
    {
      "inputs": [],
      "name": "tallyDraw",
      "outputs": [],
      "stateMutability": "nonpayable",
      "type": "function"
    }
  ],
  "bytecode": "0x60806040523480156200001157600080fd5b5062000032620000266200003860201b60201c565b6200004060201b60201c565b62000104565b600033905090565b60008060009054906101000a900473ffffffffffffffffffffffffffffffffffffffff169050816000806101000a81548173ffffffffffffffffffffffffffffffffffffffff021916908373ffffffffffffffffffffffffffffffffffffffff1602179055508173ffffffffffffffffffffffffffffffffffffffff168173ffffffffffffffffffffffffffffffffffffffff167f8be0079c531659141344cd1fd0a4f28419497f9722a3daafe3b4186f6b6457e060405160405180910390a35050565b61300a80620001146000396000f3fe608060405234801561001057600080fd5b50600436106101005760003560e01c806388e1c73911610097578063cceb68f511610066578063cceb68f514610227578063d4f50f9814610245578063f2fde38b14610275578063f4ab9adf1461029157610100565b806388e1c7391461019f5780638da5cb5b146101bb578063a1edffa2146101d9578063a2788cce146101f757610100565b8063424f80db116100d3578063424f80db146101515780635774982f1461016d578063715018a61461018b578063754062841461019557610100565b806319a59b6414610105578063230796ae1461010f5780632fdae3c51461012b5780633beee92e14610147575b600080fd5b61010d6102ad565b005b61012960048036038101906101249190611f0f565b610501565b005b61014560048036038101906101409190612082565b6107fc565b005b61014f610a3f565b005b61016b60048036038101906101669190611f0f565b610d98565b005b610175610fcb565b6040516101829190612189565b60405180910390f35b6101936110b2565b005b61019d61113a565b005b6101b960048036038101906101b49190612209565b6112e2565b005b6101c36114ff565b6040516101d09190612245565b60405180910390f35b6101e1611528565b6040516101ee91906122d7565b60405180910390f35b610211600480360381019061020c9190611f0f565b61153b565b60405161021e91906123b7565b60405180910390f35b61022f6116a2565b60405161023c91906124d8565b60405180910390f35b61025f600480360381019061025a9190612209565b61182c565b60405161026c9190612557565b60405180910390f35b61028f600480360381019061028a9190612209565b611954565b005b6102ab60048036038101906102a69190612209565b611a4b565b005b6102b5611c68565b73ffffffffffffffffffffffffffffffffffffffff166102d36114ff565b73ffffffffffffffffffffffffffffffffffffffff1614610329576040517f08c379a0000000000000000000000000000000000000000000000000000000008152600401610320906125cf565b60405180910390fd5b6004600581111561033d5761033c612260565b5b600360009054906101000a900460ff16600581111561035f5761035e612260565b5b1461039f576040517f08c379a000000000000000000000000000000000000000000000000000000000815260040161039690612661565b60405180910390fd5b600080600090505b60048054905081101561041d5781600482815481106103c9576103c8612681565b5b906000526020600020906002020160010154111561040a57600481815481106103f5576103f4612681565b5b90600052602060002090600202016001015491505b8080610415906126df565b9150506103a7565b5060005b60048054905081101561049757816004828154811061044357610442612681565b5b906000526020600020906002020160010154036104845760018190806001815401808255809150506001900390600052602060002001600090919091909150555b808061048f906126df565b915050610421565b506005600360006101000a81548160ff021916908360058111156104be576104bd612260565b5b02179055507f0a97a4ee45751e2abf3e4fc8946939630b11b371ea8ae39ccdc3056e98f5cc3f600460056040516104f6929190612727565b60405180910390a150565b600560003373ffffffffffffffffffffffffffffffffffffffff1673ffffffffffffffffffffffffffffffffffffffff16815260200190815260200160002060000160009054906101000a900460ff16610590576040517f08c379a00000000000000000000000000000000000000000000000000000000081526004016105879061279c565b60405180910390fd5b600360058111156105a4576105a3612260565b5b600360009054906101000a900460ff1660058111156105c6576105c5612260565b5b14610606576040517f08c379a00000000000000000000000000000000000000000000000000000000081526004016105fd9061282e565b60405180910390fd5b60011515600560003373ffffffffffffffffffffffffffffffffffffffff1673ffffffffffffffffffffffffffffffffffffffff16815260200190815260200160002060000160019054906101000a900460ff1615150361069c576040517f08c379a00000000000000000000000000000000000000000000000000000000081526004016106939061289a565b60405180910390fd5b60048054905081106106e3576040517f08c379a00000000000000000000000000000000000000000000000000000000081526004016106da90612906565b60405180910390fd5b80600560003373ffffffffffffffffffffffffffffffffffffffff1673ffffffffffffffffffffffffffffffffffffffff168152602001908152602001600020600101819055506001600560003373ffffffffffffffffffffffffffffffffffffffff1673ffffffffffffffffffffffffffffffffffffffff16815260200190815260200160002060000160016101000a81548160ff0219169083151502179055506004818154811061079957610798612681565b5b906000526020600020906002020160010160008154809291906107bb906126df565b91905055507f4d99b957a2bc29a30ebd96a7be8e68fe50a3c701db28a91436490b7d53870ca433826040516107f1929190612935565b60405180910390a150565b600560003373ffffffffffffffffffffffffffffffffffffffff1673ffffffffffffffffffffffffffffffffffffffff16815260200190815260200160002060000160009054906101000a900460ff1661088b576040517f08c379a00000000000000000000000000000000000000000000000000000000081526004016108829061279c565b60405180910390fd5b6001600581111561089f5761089e612260565b5b600360009054906101000a900460ff1660058111156108c1576108c0612260565b5b14610901576040517f08c379a00000000000000000000000000000000000000000000000000000000081526004016108f8906129aa565b60405180910390fd5b604051602001610910906129f0565b60405160208183030381529060405280519060200120816040516020016109379190612a49565b604051602081830303815290604052805190602001200361098d576040517f08c379a000000000000000000000000000000000000000000000000000000000815260040161098490612add565b60405180910390fd5b610995611d34565b818160000181905250600481908060018154018082558091505060019003906000526020600020906002020160009091909190915060008201518160000190805190602001906109e6929190611d4e565b506020820151816001015550507f92e393e9b54e2f801d3ea4beb0c5e71a21cc34a5d34b77d0fb8a3aa1650dc18f6001600480549050610a269190612afd565b604051610a339190612b31565b60405180910390a15050565b610a47611c68565b73ffffffffffffffffffffffffffffffffffffffff16610a656114ff565b73ffffffffffffffffffffffffffffffffffffffff1614610abb576040517f08c379a0000000000000000000000000000000000000000000000000000000008152600401610ab2906125cf565b60405180910390fd5b60046005811115610acf57610ace612260565b5b600360009054906101000a900460ff166005811115610af157610af0612260565b5b14610b31576040517f08c379a0000000000000000000000000000000000000000000000000000000008152600401610b2890612661565b60405180910390fd5b6000610b3b611dd4565b600080600090505b600480549050811015610c3d578360048281548110610b6557610b64612681565b5b90600052602060002090600202016001015403610ba85780838360058110610b9057610b8f612681565b5b6020020181815250508180610ba4906126df565b9250505b8360048281548110610bbd57610bbc612681565b5b9060005260206000209060020201600101541115610c2a57610bdd611dd4565b92508083600060058110610bf457610bf3612681565b5b60200201818152505060048181548110610c1157610c10612681565b5b9060005260206000209060020201600101549350600191505b8080610c35906126df565b915050610b43565b5060005b81811015610d2c576001838260058110610c5e57610c5d612681565b5b6020020151908060018154018082558091505060019003906000526020600020016000909190919091505560026004848360058110610ca057610c9f612681565b5b602002015181548110610cb657610cb5612681565b5b906000526020600020906002020190806001815401808255809150506001900390600052602060002090600202016000909190919091506000820181600001908054610d0190612b7b565b610d0c929190611df6565b506001820154816001015550508080610d24906126df565b915050610c41565b506005600360006101000a81548160ff02191690836005811115610d5357610d52612260565b5b02179055507f0a97a4ee45751e2abf3e4fc8946939630b11b371ea8ae39ccdc3056e98f5cc3f60046005604051610d8b929190612727565b60405180910390a1505050565b8060008103610ddc576040517f08c379a0000000000000000000000000000000000000000000000000000000008152600401610dd390612c1e565b60405180910390fd5b600181610de99190612afd565b6005811115610dfb57610dfa612260565b5b6005811115610e0d57610e0c612260565b5b600360009054906101000a900460ff166005811115610e2f57610e2e612260565b5b14610e6f576040517f08c379a0000000000000000000000000000000000000000000000000000000008152600401610e6690612c8a565b60405180910390fd5b60058103610eb2576040517f08c379a0000000000000000000000000000000000000000000000000000000008152600401610ea990612cf6565b60405180910390fd5b610eba611c68565b73ffffffffffffffffffffffffffffffffffffffff16610ed86114ff565b73ffffffffffffffffffffffffffffffffffffffff1614610f2e576040517f08c379a0000000000000000000000000000000000000000000000000000000008152600401610f25906125cf565b60405180910390fd5b6000600360009054906101000a900460ff169050826005811115610f5557610f54612260565b5b600360006101000a81548160ff02191690836005811115610f7957610f78612260565b5b02179055507f0a97a4ee45751e2abf3e4fc8946939630b11b371ea8ae39ccdc3056e98f5cc3f81600360009054906101000a900460ff16604051610fbe929190612727565b60405180910390a1505050565b6060600560003373ffffffffffffffffffffffffffffffffffffffff1673ffffffffffffffffffffffffffffffffffffffff16815260200190815260200160002060000160009054906101000a900460ff1661105c576040517f08c379a00000000000000000000000000000000000000000000000000000000081526004016110539061279c565b60405180910390fd5b60018054806020026020016040519081016040528092919081815260200182805480156110a857602002820191906000526020600020905b815481526020019060010190808311611094575b5050505050905090565b6110ba611c68565b73ffffffffffffffffffffffffffffffffffffffff166110d86114ff565b73ffffffffffffffffffffffffffffffffffffffff161461112e576040517f08c379a0000000000000000000000000000000000000000000000000000000008152600401611125906125cf565b60405180910390fd5b6111386000611c70565b565b611142611c68565b73ffffffffffffffffffffffffffffffffffffffff166111606114ff565b73ffffffffffffffffffffffffffffffffffffffff16146111b6576040517f08c379a00000000000000000000000000000000000000000000000000000000081526004016111ad906125cf565b60405180910390fd5b6004600360009054906101000a900460ff1660058111156111da576111d9612260565b5b0361121a576040517f08c379a000000000000000000000000000000000000000000000000000000000815260040161121190612d62565b60405180910390fd5b6000600360009054906101000a900460ff1690506001600360009054906101000a900460ff16600581111561125257611251612260565b5b61125c9190612d82565b600581111561126e5761126d612260565b5b600360006101000a81548160ff0219169083600581111561129257611291612260565b5b02179055507f0a97a4ee45751e2abf3e4fc8946939630b11b371ea8ae39ccdc3056e98f5cc3f81600360009054906101000a900460ff166040516112d7929190612727565b60405180910390a150565b6112ea611c68565b73ffffffffffffffffffffffffffffffffffffffff166113086114ff565b73ffffffffffffffffffffffffffffffffffffffff161461135e576040517f08c379a0000000000000000000000000000000000000000000000000000000008152600401611355906125cf565b60405180910390fd5b6000600581111561137257611371612260565b5b600360009054906101000a900460ff16600581111561139457611393612260565b5b146113d4576040517f08c379a00000000000000000000000000000000000000000000000000000000081526004016113cb90612e4a565b60405180910390fd5b60011515600560008373ffffffffffffffffffffffffffffffffffffffff1673ffffffffffffffffffffffffffffffffffffffff16815260200190815260200160002060000160009054906101000a900460ff1615151461146a576040517f08c379a000000000000000000000000000000000000000000000000000000000815260040161146190612eb6565b60405180910390fd5b6000600560008373ffffffffffffffffffffffffffffffffffffffff1673ffffffffffffffffffffffffffffffffffffffff16815260200190815260200160002060000160006101000a81548160ff0219169083151502179055507fb6be2187d059cc2a55fe29e0e503b566e1e0f8c8780096e185429350acffd3dd816040516114f49190612245565b60405180910390a150565b60008060009054906101000a900473ffffffffffffffffffffffffffffffffffffffff16905090565b600360009054906101000a900460ff1681565b611543611d34565b600560003373ffffffffffffffffffffffffffffffffffffffff1673ffffffffffffffffffffffffffffffffffffffff16815260200190815260200160002060000160009054906101000a900460ff166115d2576040517f08c379a00000000000000000000000000000000000000000000000000000000081526004016115c99061279c565b60405180910390fd5b600482815481106115e6576115e5612681565b5b906000526020600020906002020160405180604001604052908160008201805461160f90612b7b565b80601f016020809104026020016040519081016040528092919081815260200182805461163b90612b7b565b80156116885780601f1061165d57610100808354040283529160200191611688565b820191906000526020600020905b81548152906001019060200180831161166b57829003601f168201915b505050505081526020016001820154815250509050919050565b6060600560003373ffffffffffffffffffffffffffffffffffffffff1673ffffffffffffffffffffffffffffffffffffffff16815260200190815260200160002060000160009054906101000a900460ff16611733576040517f08c379a000000000000000000000000000000000000000000000000000000000815260040161172a9061279c565b60405180910390fd5b6004805480602002602001604051908101604052809291908181526020016000905b82821015611823578382906000526020600020906002020160405180604001604052908160008201805461178890612b7b565b80601f01602080910402602001604051908101604052809291908181526020018280546117b490612b7b565b80156118015780601f106117d657610100808354040283529160200191611801565b820191906000526020600020905b8154815290600101906020018083116117e457829003601f168201915b5050505050815260200160018201548152505081526020019060010190611755565b50505050905090565b611834611e83565b600560003373ffffffffffffffffffffffffffffffffffffffff1673ffffffffffffffffffffffffffffffffffffffff16815260200190815260200160002060000160009054906101000a900460ff166118c3576040517f08c379a00000000000000000000000000000000000000000000000000000000081526004016118ba9061279c565b60405180910390fd5b600560008373ffffffffffffffffffffffffffffffffffffffff1673ffffffffffffffffffffffffffffffffffffffff1681526020019081526020016000206040518060600160405290816000820160009054906101000a900460ff161515151581526020016000820160019054906101000a900460ff161515151581526020016001820154815250509050919050565b61195c611c68565b73ffffffffffffffffffffffffffffffffffffffff1661197a6114ff565b73ffffffffffffffffffffffffffffffffffffffff16146119d0576040517f08c379a00000000000000000000000000000000000000000000000000000000081526004016119c7906125cf565b60405180910390fd5b600073ffffffffffffffffffffffffffffffffffffffff168173ffffffffffffffffffffffffffffffffffffffff1603611a3f576040517f08c379a0000000000000000000000000000000000000000000000000000000008152600401611a3690612f48565b60405180910390fd5b611a4881611c70565b50565b611a53611c68565b73ffffffffffffffffffffffffffffffffffffffff16611a716114ff565b73ffffffffffffffffffffffffffffffffffffffff1614611ac7576040517f08c379a0000000000000000000000000000000000000000000000000000000008152600401611abe906125cf565b60405180910390fd5b60006005811115611adb57611ada612260565b5b600360009054906101000a900460ff166005811115611afd57611afc612260565b5b14611b3d576040517f08c379a0000000000000000000000000000000000000000000000000000000008152600401611b3490612e4a565b60405180910390fd5b60011515600560008373ffffffffffffffffffffffffffffffffffffffff1673ffffffffffffffffffffffffffffffffffffffff16815260200190815260200160002060000160009054906101000a900460ff16151503611bd3576040517f08c379a0000000000000000000000000000000000000000000000000000000008152600401611bca90612fb4565b60405180910390fd5b6001600560008373ffffffffffffffffffffffffffffffffffffffff1673ffffffffffffffffffffffffffffffffffffffff16815260200190815260200160002060000160006101000a81548160ff0219169083151502179055507fb6be2187d059cc2a55fe29e0e503b566e1e0f8c8780096e185429350acffd3dd81604051611c5d9190612245565b60405180910390a150565b600033905090565b60008060009054906101000a900473ffffffffffffffffffffffffffffffffffffffff169050816000806101000a81548173ffffffffffffffffffffffffffffffffffffffff021916908373ffffffffffffffffffffffffffffffffffffffff1602179055508173ffffffffffffffffffffffffffffffffffffffff168173ffffffffffffffffffffffffffffffffffffffff167f8be0079c531659141344cd1fd0a4f28419497f9722a3daafe3b4186f6b6457e060405160405180910390a35050565b604051806040016040528060608152602001600081525090565b828054611d5a90612b7b565b90600052602060002090601f016020900481019282611d7c5760008555611dc3565b82601f10611d9557805160ff1916838001178555611dc3565b82800160010185558215611dc3579182015b82811115611dc2578251825591602001919060010190611da7565b5b509050611dd09190611ea8565b5090565b6040518060a00160405280600590602082028036833780820191505090505090565b828054611e0290612b7b565b90600052602060002090601f016020900481019282611e245760008555611e72565b82601f10611e355780548555611e72565b82800160010185558215611e7257600052602060002091601f016020900482015b82811115611e71578254825591600101919060010190611e56565b5b509050611e7f9190611ea8565b5090565b6040518060600160405280600015158152602001600015158152602001600081525090565b5b80821115611ec1576000816000905550600101611ea9565b5090565b6000604051905090565b600080fd5b600080fd5b6000819050919050565b611eec81611ed9565b8114611ef757600080fd5b50565b600081359050611f0981611ee3565b92915050565b600060208284031215611f2557611f24611ecf565b5b6000611f3384828501611efa565b91505092915050565b600080fd5b600080fd5b6000601f19601f8301169050919050565b7f4e487b7100000000000000000000000000000000000000000000000000000000600052604160045260246000fd5b611f8f82611f46565b810181811067ffffffffffffffff82111715611fae57611fad611f57565b5b80604052505050565b6000611fc1611ec5565b9050611fcd8282611f86565b919050565b600067ffffffffffffffff821115611fed57611fec611f57565b5b611ff682611f46565b9050602081019050919050565b82818337600083830152505050565b600061202561202084611fd2565b611fb7565b90508281526020810184848401111561204157612040611f41565b5b61204c848285612003565b509392505050565b600082601f83011261206957612068611f3c565b5b8135612079848260208601612012565b91505092915050565b60006020828403121561209857612097611ecf565b5b600082013567ffffffffffffffff8111156120b6576120b5611ed4565b5b6120c284828501612054565b91505092915050565b600081519050919050565b600082825260208201905092915050565b6000819050602082019050919050565b61210081611ed9565b82525050565b600061211283836120f7565b60208301905092915050565b6000602082019050919050565b6000612136826120cb565b61214081856120d6565b935061214b836120e7565b8060005b8381101561217c5781516121638882612106565b975061216e8361211e565b92505060018101905061214f565b5085935050505092915050565b600060208201905081810360008301526121a3818461212b565b905092915050565b600073ffffffffffffffffffffffffffffffffffffffff82169050919050565b60006121d6826121ab565b9050919050565b6121e6816121cb565b81146121f157600080fd5b50565b600081359050612203816121dd565b92915050565b60006020828403121561221f5761221e611ecf565b5b600061222d848285016121f4565b91505092915050565b61223f816121cb565b82525050565b600060208201905061225a6000830184612236565b92915050565b7f4e487b7100000000000000000000000000000000000000000000000000000000600052602160045260246000fd5b600681106122a05761229f612260565b5b50565b60008190506122b18261228f565b919050565b60006122c1826122a3565b9050919050565b6122d1816122b6565b82525050565b60006020820190506122ec60008301846122c8565b92915050565b600081519050919050565b600082825260208201905092915050565b60005b8381101561232c578082015181840152602081019050612311565b8381111561233b576000848401525b50505050565b600061234c826122f2565b61235681856122fd565b935061236681856020860161230e565b61236f81611f46565b840191505092915050565b600060408301600083015184820360008601526123978282612341565b91505060208301516123ac60208601826120f7565b508091505092915050565b600060208201905081810360008301526123d1818461237a565b905092915050565b600081519050919050565b600082825260208201905092915050565b6000819050602082019050919050565b600060408301600083015184820360008601526124228282612341565b915050602083015161243760208601826120f7565b508091505092915050565b600061244e8383612405565b905092915050565b6000602082019050919050565b600061246e826123d9565b61247881856123e4565b93508360208202850161248a856123f5565b8060005b858110156124c657848403895281516124a78582612442565b94506124b283612456565b925060208a0199505060018101905061248e565b50829750879550505050505092915050565b600060208201905081810360008301526124f28184612463565b905092915050565b60008115159050919050565b61250f816124fa565b82525050565b60608201600082015161252b6000850182612506565b50602082015161253e6020850182612506565b50604082015161255160408501826120f7565b50505050565b600060608201905061256c6000830184612515565b92915050565b600082825260208201905092915050565b7f4f776e61626c653a2063616c6c6572206973206e6f7420746865206f776e6572600082015250565b60006125b9602083612572565b91506125c482612583565b602082019050919050565b600060208201905081810360008301526125e8816125ac565b9050919050565b7f43757272656e7420737461747573206973206e6f7420766f74696e672073657360008201527f73696f6e20656e64656400000000000000000000000000000000000000000000602082015250565b600061264b602a83612572565b9150612656826125ef565b604082019050919050565b6000602082019050818103600083015261267a8161263e565b9050919050565b7f4e487b7100000000000000000000000000000000000000000000000000000000600052603260045260246000fd5b7f4e487b7100000000000000000000000000000000000000000000000000000000600052601160045260246000fd5b60006126ea82611ed9565b91507fffffffffffffffffffffffffffffffffffffffffffffffffffffffffffffffff820361271c5761271b6126b0565b5b600182019050919050565b600060408201905061273c60008301856122c8565b61274960208301846122c8565b9392505050565b7f596f75277265206e6f74206120766f7465720000000000000000000000000000600082015250565b6000612786601283612572565b915061279182612750565b602082019050919050565b600060208201905081810360008301526127b581612779565b9050919050565b7f566f74696e672073657373696f6e20686176656e74207374617274656420796560008201527f7400000000000000000000000000000000000000000000000000000000000000602082015250565b6000612818602183612572565b9150612823826127bc565b604082019050919050565b600060208201905081810360008301526128478161280b565b9050919050565b7f596f75206861766520616c726561647920766f74656400000000000000000000600082015250565b6000612884601683612572565b915061288f8261284e565b602082019050919050565b600060208201905081810360008301526128b381612877565b9050919050565b7f50726f706f73616c206e6f7420666f756e640000000000000000000000000000600082015250565b60006128f0601283612572565b91506128fb826128ba565b602082019050919050565b6000602082019050818103600083015261291f816128e3565b9050919050565b61292f81611ed9565b82525050565b600060408201905061294a6000830185612236565b6129576020830184612926565b9392505050565b7f50726f706f73616c7320617265206e6f7420616c6c6f77656420796574000000600082015250565b6000612994601d83612572565b915061299f8261295e565b602082019050919050565b600060208201905081810360008301526129c381612987565b9050919050565b50565b60006129da600083612572565b91506129e5826129ca565b600082019050919050565b60006020820190508181036000830152612a09816129cd565b9050919050565b6000612a1b826122f2565b612a258185612572565b9350612a3581856020860161230e565b612a3e81611f46565b840191505092915050565b60006020820190508181036000830152612a638184612a10565b905092915050565b7f566f7573206e6520706f7576657a20706173206e65207269656e2070726f706f60008201527f7365720000000000000000000000000000000000000000000000000000000000602082015250565b6000612ac7602383612572565b9150612ad282612a6b565b604082019050919050565b60006020820190508181036000830152612af681612aba565b9050919050565b6000612b0882611ed9565b9150612b1383611ed9565b925082821015612b2657612b256126b0565b5b828203905092915050565b6000602082019050612b466000830184612926565b92915050565b7f4e487b7100000000000000000000000000000000000000000000000000000000600052602260045260246000fd5b60006002820490506001821680612b9357607f821691505b602082108103612ba657612ba5612b4c565b5b50919050565b7f4e6f7420706f737369626c6520746f20676574206261636b20746f207468652060008201527f6f726967696e616c207374617465000000000000000000000000000000000000602082015250565b6000612c08602e83612572565b9150612c1382612bac565b604082019050919050565b60006020820190508181036000830152612c3781612bfb565b9050919050565b7f62616420776f726b666c6f777374617475730000000000000000000000000000600082015250565b6000612c74601283612572565b9150612c7f82612c3e565b602082019050919050565b60006020820190508181036000830152612ca381612c67565b9050919050565b7f696c2066617574206c616e6365722074616c6c7920766f746573000000000000600082015250565b6000612ce0601a83612572565b9150612ceb82612caa565b602082019050919050565b60006020820190508181036000830152612d0f81612cd3565b9050919050565b7f696c2066617574206c616e6365722074616c6c79766f74657300000000000000600082015250565b6000612d4c601983612572565b9150612d5782612d16565b602082019050919050565b60006020820190508181036000830152612d7b81612d3f565b9050919050565b6000612d8d82611ed9565b9150612d9883611ed9565b9250827fffffffffffffffffffffffffffffffffffffffffffffffffffffffffffffffff03821115612dcd57612dcc6126b0565b5b828201905092915050565b7f566f7465727320726567697374726174696f6e206973206e6f74206f70656e2060008201527f7965740000000000000000000000000000000000000000000000000000000000602082015250565b6000612e34602383612572565b9150612e3f82612dd8565b604082019050919050565b60006020820190508181036000830152612e6381612e27565b9050919050565b7f4e6f7420726567697374657265642e0000000000000000000000000000000000600082015250565b6000612ea0600f83612572565b9150612eab82612e6a565b602082019050919050565b60006020820190508181036000830152612ecf81612e93565b9050919050565b7f4f776e61626c653a206e6577206f776e657220697320746865207a65726f206160008201527f6464726573730000000000000000000000000000000000000000000000000000602082015250565b6000612f32602683612572565b9150612f3d82612ed6565b604082019050919050565b60006020820190508181036000830152612f6181612f25565b9050919050565b7f416c726561647920726567697374657265640000000000000000000000000000600082015250565b6000612f9e601283612572565b9150612fa982612f68565b602082019050919050565b60006020820190508181036000830152612fcd81612f91565b905091905056fea26469706673582212207d40f3c02fddde29b44e5d84db077f09b4a6ae1e23b14f4258a24f96c192c12264736f6c634300080d0033",
  "immutableReferences": {},
  "source": "// SPDX-License-Identifier: MIT\n\npragma solidity 0.8.13;\n\nimport \"../node_modules/@openzeppelin/contracts/access/Ownable.sol\";\n\n\ncontract Voting is Ownable {\n\n    uint[] winningProposalsID;\n    Proposal[] winningProposals;\n    \n    struct Voter {\n        bool isRegistered;\n        bool hasVoted;\n        uint votedProposalId;\n    }\n\n    struct Proposal {\n        string description;\n        uint voteCount;\n    }\n\n    enum  WorkflowStatus {\n        RegisteringVoters,\n        ProposalsRegistrationStarted,\n        ProposalsRegistrationEnded,\n        VotingSessionStarted,\n        VotingSessionEnded,\n        VotesTallied\n    }\n\n    WorkflowStatus public workflowStatus;\n    Proposal[] proposalsArray;\n    mapping (address => Voter) voters;\n\n\n    event VoterRegistered(address voterAddress); \n    event WorkflowStatusChange(WorkflowStatus previousStatus, WorkflowStatus newStatus);\n    event ProposalRegistered(uint proposalId);\n    event Voted (address voter, uint proposalId);\n\n    modifier onlyVoters() {\n        require(voters[msg.sender].isRegistered, \"You're not a voter\");\n        _;\n    }\n    \n    // on peut faire un modifier pour les tats\n\n    // ::::::::::::: GETTERS ::::::::::::: //\n\n    function getVoter(address _addr) external onlyVoters view returns (Voter memory) {\n        return voters[_addr];\n    }\n    \n    function getOneProposal(uint _id) external onlyVoters view returns (Proposal memory) {\n        return proposalsArray[_id];\n    }\n    //this getters have been added in order to perform some specific assertion style testing or \n    function getAllProposals() external onlyVoters view returns (Proposal[] memory) {\n        return proposalsArray;\n    }\n    function getWinningProposalsID() external onlyVoters view returns (uint[] memory) {\n        return winningProposalsID;\n    }\n\n \n    // ::::::::::::: REGISTRATION ::::::::::::: // \n\n    function addVoter(address _addr) external onlyOwner {\n        require(workflowStatus == WorkflowStatus.RegisteringVoters, 'Voters registration is not open yet');\n        require(voters[_addr].isRegistered != true, 'Already registered');\n    \n        voters[_addr].isRegistered = true;\n        emit VoterRegistered(_addr);\n    }\n \n    \n    function deleteVoter(address _addr) external onlyOwner {\n        require(workflowStatus == WorkflowStatus.RegisteringVoters, 'Voters registration is not open yet');\n        require(voters[_addr].isRegistered == true, 'Not registered.');\n        voters[_addr].isRegistered = false;\n        emit VoterRegistered(_addr);\n    }\n\n    // ::::::::::::: PROPOSAL ::::::::::::: // \n\n    function addProposal(string memory _desc) external onlyVoters {\n        require(workflowStatus == WorkflowStatus.ProposalsRegistrationStarted, 'Proposals are not allowed yet');\n        require(keccak256(abi.encode(_desc)) != keccak256(abi.encode(\"\")), 'Vous ne pouvez pas ne rien proposer'); // facultatif\n        // voir que desc est different des autres\n\n        Proposal memory proposal;\n        proposal.description = _desc;\n        proposalsArray.push(proposal);\n        emit ProposalRegistered(proposalsArray.length-1);\n    }\n\n    // ::::::::::::: VOTE ::::::::::::: //\n\n    function setVote( uint _id) external onlyVoters {\n        require(workflowStatus == WorkflowStatus.VotingSessionStarted, 'Voting session havent started yet');\n        require(voters[msg.sender].hasVoted != true, 'You have already voted');\n        require(_id < proposalsArray.length, 'Proposal not found'); // pas oblig, et pas besoin du >0 car uint\n\n        voters[msg.sender].votedProposalId = _id;\n        voters[msg.sender].hasVoted = true;\n        proposalsArray[_id].voteCount++;\n\n        emit Voted(msg.sender, _id);\n    }\n\n    // ::::::::::::: STATE ::::::::::::: //\n\n    modifier checkWorkflowStatus(uint  _num) {\n        require (_num != 0, \"Not possible to get back to the original state\");\n        require (workflowStatus==WorkflowStatus(uint(_num)-1), \"bad workflowstatus\");\n        require (_num != 5, \"il faut lancer tally votes\");\n        _;\n      }\n    \n    function setWorkflowStatus(uint _num) external checkWorkflowStatus(_num) onlyOwner {\n        WorkflowStatus old = workflowStatus;\n        workflowStatus = WorkflowStatus(_num);\n        emit WorkflowStatusChange(old, workflowStatus);\n       } \n    \n    //ou \n\n    function nextWorkflowStatus() external onlyOwner{\n        require (uint(workflowStatus)!=4, \"il faut lancer tallyvotes\");\n        WorkflowStatus old = workflowStatus;\n        workflowStatus= WorkflowStatus(uint (workflowStatus) + 1);\n        emit WorkflowStatusChange(old, workflowStatus);\n    }\n        \n\n    function tallyVotesDraw() external onlyOwner {\n       require(workflowStatus == WorkflowStatus.VotingSessionEnded, \"Current status is not voting session ended\");\n        uint highestCount;\n        uint[5]memory winners; // egalite entre 5 personnes max\n        uint nbWinners;\n        for (uint i = 0; i < proposalsArray.length; i++) {\n            if (proposalsArray[i].voteCount == highestCount) {\n                winners[nbWinners]=i;\n                nbWinners++;\n            }\n            if (proposalsArray[i].voteCount > highestCount) {\n                delete winners;\n                winners[0]= i;\n                highestCount = proposalsArray[i].voteCount;\n                nbWinners=1;\n            }\n        }\n        for(uint j=0;j<nbWinners;j++){\n            winningProposalsID.push(winners[j]);\n            winningProposals.push(proposalsArray[winners[j]]);\n        }\n        workflowStatus = WorkflowStatus.VotesTallied;\n        emit WorkflowStatusChange(WorkflowStatus.VotingSessionEnded, WorkflowStatus.VotesTallied);\n    }\n\n\n// ou\n    function tallyDraw() external onlyOwner{\n       require(workflowStatus == WorkflowStatus.VotingSessionEnded, \"Current status is not voting session ended\");\n        uint highestCount;\n        \n        for (uint i = 0; i < proposalsArray.length; i++) {\n            if (proposalsArray[i].voteCount > highestCount) {\n                highestCount = proposalsArray[i].voteCount;\n            }\n        }\n        \n        for (uint j = 0; j < proposalsArray.length; j++) {\n            if (proposalsArray[j].voteCount == highestCount) {\n                winningProposalsID.push(j);\n            }\n        }\n\n        workflowStatus = WorkflowStatus.VotesTallied;\n        emit WorkflowStatusChange(WorkflowStatus.VotingSessionEnded, WorkflowStatus.VotesTallied);\n\n    }\n\n}",
  "sourcePath": "/home/adnane/projet2_testedVoteSystem/Developpeur-Ethereum-Template/4. Truffle & CI-CD/contracts/Voting.sol",
  "compiler": {
    "name": "solc",
    "version": "0.8.13+commit.abaa5c0e.Emscripten.clang"
  },
  "schemaVersion": "3.4.7",
  "updatedAt": "2022-06-28T08:43:03.038Z",
  "networkType": "ethereum",
  "devdoc": {
    "kind": "dev",
    "methods": {
      "owner()": {
        "details": "Returns the address of the current owner."
      },
      "renounceOwnership()": {
        "details": "Leaves the contract without owner. It will not be possible to call `onlyOwner` functions anymore. Can only be called by the current owner. NOTE: Renouncing ownership will leave the contract without an owner, thereby removing any functionality that is only available to the owner."
      },
      "transferOwnership(address)": {
        "details": "Transfers ownership of the contract to a new account (`newOwner`). Can only be called by the current owner."
      }
    },
    "version": 1
  },
  "userdoc": {
    "kind": "user",
    "methods": {},
    "version": 1
  }
}