{
  "contractName": "Voting",
  "abi": [
    {
      "anonymous": false,
      "inputs": [
        {
          "indexed": true,
          "internalType": "address",
          "name": "previousOwner",
          "type": "address"
        },
        {
          "indexed": true,
          "internalType": "address",
          "name": "newOwner",
          "type": "address"
        }
      ],
      "name": "OwnershipTransferred",
      "type": "event"
    },
    {
      "anonymous": false,
      "inputs": [
        {
          "indexed": false,
          "internalType": "uint256",
          "name": "proposalId",
          "type": "uint256"
        }
      ],
      "name": "ProposalRegistered",
      "type": "event"
    },
    {
      "anonymous": false,
      "inputs": [
        {
          "indexed": false,
          "internalType": "address",
          "name": "voter",
          "type": "address"
        },
        {
          "indexed": false,
          "internalType": "uint256",
          "name": "proposalId",
          "type": "uint256"
        }
      ],
      "name": "Voted",
      "type": "event"
    },
    {
      "anonymous": false,
      "inputs": [
        {
          "indexed": false,
          "internalType": "address",
          "name": "voterAddress",
          "type": "address"
        }
      ],
      "name": "VoterRegistered",
      "type": "event"
    },
    {
      "anonymous": false,
      "inputs": [
        {
          "indexed": false,
          "internalType": "enum Voting.WorkflowStatus",
          "name": "previousStatus",
          "type": "uint8"
        },
        {
          "indexed": false,
          "internalType": "enum Voting.WorkflowStatus",
          "name": "newStatus",
          "type": "uint8"
        }
      ],
      "name": "WorkflowStatusChange",
      "type": "event"
    },
    {
      "inputs": [],
      "name": "owner",
      "outputs": [
        {
          "internalType": "address",
          "name": "",
          "type": "address"
        }
      ],
      "stateMutability": "view",
      "type": "function",
      "constant": true
    },
    {
      "inputs": [],
      "name": "renounceOwnership",
      "outputs": [],
      "stateMutability": "nonpayable",
      "type": "function"
    },
    {
      "inputs": [
        {
          "internalType": "address",
          "name": "newOwner",
          "type": "address"
        }
      ],
      "name": "transferOwnership",
      "outputs": [],
      "stateMutability": "nonpayable",
      "type": "function"
    },
    {
      "inputs": [],
      "name": "workflowStatus",
      "outputs": [
        {
          "internalType": "enum Voting.WorkflowStatus",
          "name": "",
          "type": "uint8"
        }
      ],
      "stateMutability": "view",
      "type": "function",
      "constant": true
    },
    {
      "inputs": [
        {
          "internalType": "address",
          "name": "_addr",
          "type": "address"
        }
      ],
      "name": "getVoter",
      "outputs": [
        {
          "components": [
            {
              "internalType": "bool",
              "name": "isRegistered",
              "type": "bool"
            },
            {
              "internalType": "bool",
              "name": "hasVoted",
              "type": "bool"
            },
            {
              "internalType": "uint256",
              "name": "votedProposalId",
              "type": "uint256"
            }
          ],
          "internalType": "struct Voting.Voter",
          "name": "",
          "type": "tuple"
        }
      ],
      "stateMutability": "view",
      "type": "function",
      "constant": true
    },
    {
      "inputs": [
        {
          "internalType": "uint256",
          "name": "_id",
          "type": "uint256"
        }
      ],
      "name": "getOneProposal",
      "outputs": [
        {
          "components": [
            {
              "internalType": "string",
              "name": "description",
              "type": "string"
            },
            {
              "internalType": "uint256",
              "name": "voteCount",
              "type": "uint256"
            }
          ],
          "internalType": "struct Voting.Proposal",
          "name": "",
          "type": "tuple"
        }
      ],
      "stateMutability": "view",
      "type": "function",
      "constant": true
    },
    {
      "inputs": [
        {
          "internalType": "address",
          "name": "_addr",
          "type": "address"
        }
      ],
      "name": "addVoter",
      "outputs": [],
      "stateMutability": "nonpayable",
      "type": "function"
    },
    {
      "inputs": [
        {
          "internalType": "address",
          "name": "_addr",
          "type": "address"
        }
      ],
      "name": "deleteVoter",
      "outputs": [],
      "stateMutability": "nonpayable",
      "type": "function"
    },
    {
      "inputs": [
        {
          "internalType": "string",
          "name": "_desc",
          "type": "string"
        }
      ],
      "name": "addProposal",
      "outputs": [],
      "stateMutability": "nonpayable",
      "type": "function"
    },
    {
      "inputs": [
        {
          "internalType": "uint256",
          "name": "_id",
          "type": "uint256"
        }
      ],
      "name": "setVote",
      "outputs": [],
      "stateMutability": "nonpayable",
      "type": "function"
    },
    {
      "inputs": [
        {
          "internalType": "uint256",
          "name": "_num",
          "type": "uint256"
        }
      ],
      "name": "setWorkflowStatus",
      "outputs": [],
      "stateMutability": "nonpayable",
      "type": "function"
    },
    {
      "inputs": [],
      "name": "nextWorkflowStatus",
      "outputs": [],
      "stateMutability": "nonpayable",
      "type": "function"
    },
    {
      "inputs": [],
      "name": "tallyVotesDraw",
      "outputs": [],
      "stateMutability": "nonpayable",
      "type": "function"
    },
    {
      "inputs": [],
      "name": "tallyDraw",
      "outputs": [],
      "stateMutability": "nonpayable",
      "type": "function"
    }
  ],
  "bytecode": "0x60806040523480156200001157600080fd5b5062000032620000266200003860201b60201c565b6200004060201b60201c565b62000104565b600033905090565b60008060009054906101000a900473ffffffffffffffffffffffffffffffffffffffff169050816000806101000a81548173ffffffffffffffffffffffffffffffffffffffff021916908373ffffffffffffffffffffffffffffffffffffffff1602179055508173ffffffffffffffffffffffffffffffffffffffff168173ffffffffffffffffffffffffffffffffffffffff167f8be0079c531659141344cd1fd0a4f28419497f9722a3daafe3b4186f6b6457e060405160405180910390a35050565b612a8080620001146000396000f3fe608060405234801561001057600080fd5b50600436106100ea5760003560e01c806388e1c7391161008c578063a2788cce11610066578063a2788cce146101c3578063d4f50f98146101f3578063f2fde38b14610223578063f4ab9adf1461023f576100ea565b806388e1c7391461016b5780638da5cb5b14610187578063a1edffa2146101a5576100ea565b80633beee92e116100c85780633beee92e14610131578063424f80db1461013b578063715018a6146101575780637540628414610161576100ea565b806319a59b64146100ef578063230796ae146100f95780632fdae3c514610115575b600080fd5b6100f761025b565b005b610113600480360381019061010e9190611c09565b6104af565b005b61012f600480360381019061012a9190611d7c565b6107aa565b005b6101396109ed565b005b61015560048036038101906101509190611c09565b610d46565b005b61015f610f36565b005b610169610fbe565b005b61018560048036038101906101809190611e23565b611166565b005b61018f611383565b60405161019c9190611e5f565b60405180910390f35b6101ad6113ac565b6040516101ba9190611ef1565b60405180910390f35b6101dd60048036038101906101d89190611c09565b6113bf565b6040516101ea9190611fe0565b60405180910390f35b61020d60048036038101906102089190611e23565b611526565b60405161021a919061205f565b60405180910390f35b61023d60048036038101906102389190611e23565b61164e565b005b61025960048036038101906102549190611e23565b611745565b005b610263611962565b73ffffffffffffffffffffffffffffffffffffffff16610281611383565b73ffffffffffffffffffffffffffffffffffffffff16146102d7576040517f08c379a00000000000000000000000000000000000000000000000000000000081526004016102ce906120d7565b60405180910390fd5b600460058111156102eb576102ea611e7a565b5b600360009054906101000a900460ff16600581111561030d5761030c611e7a565b5b1461034d576040517f08c379a000000000000000000000000000000000000000000000000000000000815260040161034490612169565b60405180910390fd5b600080600090505b6004805490508110156103cb57816004828154811061037757610376612189565b5b90600052602060002090600202016001015411156103b857600481815481106103a3576103a2612189565b5b90600052602060002090600202016001015491505b80806103c3906121e7565b915050610355565b5060005b6004805490508110156104455781600482815481106103f1576103f0612189565b5b906000526020600020906002020160010154036104325760018190806001815401808255809150506001900390600052602060002001600090919091909150555b808061043d906121e7565b9150506103cf565b506005600360006101000a81548160ff0219169083600581111561046c5761046b611e7a565b5b02179055507f0a97a4ee45751e2abf3e4fc8946939630b11b371ea8ae39ccdc3056e98f5cc3f600460056040516104a492919061222f565b60405180910390a150565b600560003373ffffffffffffffffffffffffffffffffffffffff1673ffffffffffffffffffffffffffffffffffffffff16815260200190815260200160002060000160009054906101000a900460ff1661053e576040517f08c379a0000000000000000000000000000000000000000000000000000000008152600401610535906122a4565b60405180910390fd5b6003600581111561055257610551611e7a565b5b600360009054906101000a900460ff16600581111561057457610573611e7a565b5b146105b4576040517f08c379a00000000000000000000000000000000000000000000000000000000081526004016105ab90612336565b60405180910390fd5b60011515600560003373ffffffffffffffffffffffffffffffffffffffff1673ffffffffffffffffffffffffffffffffffffffff16815260200190815260200160002060000160019054906101000a900460ff1615150361064a576040517f08c379a0000000000000000000000000000000000000000000000000000000008152600401610641906123a2565b60405180910390fd5b6004805490508110610691576040517f08c379a00000000000000000000000000000000000000000000000000000000081526004016106889061240e565b60405180910390fd5b80600560003373ffffffffffffffffffffffffffffffffffffffff1673ffffffffffffffffffffffffffffffffffffffff168152602001908152602001600020600101819055506001600560003373ffffffffffffffffffffffffffffffffffffffff1673ffffffffffffffffffffffffffffffffffffffff16815260200190815260200160002060000160016101000a81548160ff0219169083151502179055506004818154811061074757610746612189565b5b90600052602060002090600202016001016000815480929190610769906121e7565b91905055507f4d99b957a2bc29a30ebd96a7be8e68fe50a3c701db28a91436490b7d53870ca4338260405161079f92919061243d565b60405180910390a150565b600560003373ffffffffffffffffffffffffffffffffffffffff1673ffffffffffffffffffffffffffffffffffffffff16815260200190815260200160002060000160009054906101000a900460ff16610839576040517f08c379a0000000000000000000000000000000000000000000000000000000008152600401610830906122a4565b60405180910390fd5b6001600581111561084d5761084c611e7a565b5b600360009054906101000a900460ff16600581111561086f5761086e611e7a565b5b146108af576040517f08c379a00000000000000000000000000000000000000000000000000000000081526004016108a6906124b2565b60405180910390fd5b6040516020016108be906124f8565b60405160208183030381529060405280519060200120816040516020016108e59190612551565b604051602081830303815290604052805190602001200361093b576040517f08c379a0000000000000000000000000000000000000000000000000000000008152600401610932906125e5565b60405180910390fd5b610943611a2e565b81816000018190525060048190806001815401808255809150506001900390600052602060002090600202016000909190919091506000820151816000019080519060200190610994929190611a48565b506020820151816001015550507f92e393e9b54e2f801d3ea4beb0c5e71a21cc34a5d34b77d0fb8a3aa1650dc18f60016004805490506109d49190612605565b6040516109e19190612639565b60405180910390a15050565b6109f5611962565b73ffffffffffffffffffffffffffffffffffffffff16610a13611383565b73ffffffffffffffffffffffffffffffffffffffff1614610a69576040517f08c379a0000000000000000000000000000000000000000000000000000000008152600401610a60906120d7565b60405180910390fd5b60046005811115610a7d57610a7c611e7a565b5b600360009054906101000a900460ff166005811115610a9f57610a9e611e7a565b5b14610adf576040517f08c379a0000000000000000000000000000000000000000000000000000000008152600401610ad690612169565b60405180910390fd5b6000610ae9611ace565b600080600090505b600480549050811015610beb578360048281548110610b1357610b12612189565b5b90600052602060002090600202016001015403610b565780838360058110610b3e57610b3d612189565b5b6020020181815250508180610b52906121e7565b9250505b8360048281548110610b6b57610b6a612189565b5b9060005260206000209060020201600101541115610bd857610b8b611ace565b92508083600060058110610ba257610ba1612189565b5b60200201818152505060048181548110610bbf57610bbe612189565b5b9060005260206000209060020201600101549350600191505b8080610be3906121e7565b915050610af1565b5060005b81811015610cda576001838260058110610c0c57610c0b612189565b5b6020020151908060018154018082558091505060019003906000526020600020016000909190919091505560026004848360058110610c4e57610c4d612189565b5b602002015181548110610c6457610c63612189565b5b906000526020600020906002020190806001815401808255809150506001900390600052602060002090600202016000909190919091506000820181600001908054610caf90612683565b610cba929190611af0565b506001820154816001015550508080610cd2906121e7565b915050610bef565b506005600360006101000a81548160ff02191690836005811115610d0157610d00611e7a565b5b02179055507f0a97a4ee45751e2abf3e4fc8946939630b11b371ea8ae39ccdc3056e98f5cc3f60046005604051610d3992919061222f565b60405180910390a1505050565b80600181610d549190612605565b6005811115610d6657610d65611e7a565b5b6005811115610d7857610d77611e7a565b5b600360009054906101000a900460ff166005811115610d9a57610d99611e7a565b5b14610dda576040517f08c379a0000000000000000000000000000000000000000000000000000000008152600401610dd190612700565b60405180910390fd5b60058103610e1d576040517f08c379a0000000000000000000000000000000000000000000000000000000008152600401610e149061276c565b60405180910390fd5b610e25611962565b73ffffffffffffffffffffffffffffffffffffffff16610e43611383565b73ffffffffffffffffffffffffffffffffffffffff1614610e99576040517f08c379a0000000000000000000000000000000000000000000000000000000008152600401610e90906120d7565b60405180910390fd5b6000600360009054906101000a900460ff169050826005811115610ec057610ebf611e7a565b5b600360006101000a81548160ff02191690836005811115610ee457610ee3611e7a565b5b02179055507f0a97a4ee45751e2abf3e4fc8946939630b11b371ea8ae39ccdc3056e98f5cc3f81600360009054906101000a900460ff16604051610f2992919061222f565b60405180910390a1505050565b610f3e611962565b73ffffffffffffffffffffffffffffffffffffffff16610f5c611383565b73ffffffffffffffffffffffffffffffffffffffff1614610fb2576040517f08c379a0000000000000000000000000000000000000000000000000000000008152600401610fa9906120d7565b60405180910390fd5b610fbc600061196a565b565b610fc6611962565b73ffffffffffffffffffffffffffffffffffffffff16610fe4611383565b73ffffffffffffffffffffffffffffffffffffffff161461103a576040517f08c379a0000000000000000000000000000000000000000000000000000000008152600401611031906120d7565b60405180910390fd5b6004600360009054906101000a900460ff16600581111561105e5761105d611e7a565b5b0361109e576040517f08c379a0000000000000000000000000000000000000000000000000000000008152600401611095906127d8565b60405180910390fd5b6000600360009054906101000a900460ff1690506001600360009054906101000a900460ff1660058111156110d6576110d5611e7a565b5b6110e091906127f8565b60058111156110f2576110f1611e7a565b5b600360006101000a81548160ff0219169083600581111561111657611115611e7a565b5b02179055507f0a97a4ee45751e2abf3e4fc8946939630b11b371ea8ae39ccdc3056e98f5cc3f81600360009054906101000a900460ff1660405161115b92919061222f565b60405180910390a150565b61116e611962565b73ffffffffffffffffffffffffffffffffffffffff1661118c611383565b73ffffffffffffffffffffffffffffffffffffffff16146111e2576040517f08c379a00000000000000000000000000000000000000000000000000000000081526004016111d9906120d7565b60405180910390fd5b600060058111156111f6576111f5611e7a565b5b600360009054906101000a900460ff16600581111561121857611217611e7a565b5b14611258576040517f08c379a000000000000000000000000000000000000000000000000000000000815260040161124f906128c0565b60405180910390fd5b60011515600560008373ffffffffffffffffffffffffffffffffffffffff1673ffffffffffffffffffffffffffffffffffffffff16815260200190815260200160002060000160009054906101000a900460ff161515146112ee576040517f08c379a00000000000000000000000000000000000000000000000000000000081526004016112e59061292c565b60405180910390fd5b6000600560008373ffffffffffffffffffffffffffffffffffffffff1673ffffffffffffffffffffffffffffffffffffffff16815260200190815260200160002060000160006101000a81548160ff0219169083151502179055507fb6be2187d059cc2a55fe29e0e503b566e1e0f8c8780096e185429350acffd3dd816040516113789190611e5f565b60405180910390a150565b60008060009054906101000a900473ffffffffffffffffffffffffffffffffffffffff16905090565b600360009054906101000a900460ff1681565b6113c7611a2e565b600560003373ffffffffffffffffffffffffffffffffffffffff1673ffffffffffffffffffffffffffffffffffffffff16815260200190815260200160002060000160009054906101000a900460ff16611456576040517f08c379a000000000000000000000000000000000000000000000000000000000815260040161144d906122a4565b60405180910390fd5b6004828154811061146a57611469612189565b5b906000526020600020906002020160405180604001604052908160008201805461149390612683565b80601f01602080910402602001604051908101604052809291908181526020018280546114bf90612683565b801561150c5780601f106114e15761010080835404028352916020019161150c565b820191906000526020600020905b8154815290600101906020018083116114ef57829003601f168201915b505050505081526020016001820154815250509050919050565b61152e611b7d565b600560003373ffffffffffffffffffffffffffffffffffffffff1673ffffffffffffffffffffffffffffffffffffffff16815260200190815260200160002060000160009054906101000a900460ff166115bd576040517f08c379a00000000000000000000000000000000000000000000000000000000081526004016115b4906122a4565b60405180910390fd5b600560008373ffffffffffffffffffffffffffffffffffffffff1673ffffffffffffffffffffffffffffffffffffffff1681526020019081526020016000206040518060600160405290816000820160009054906101000a900460ff161515151581526020016000820160019054906101000a900460ff161515151581526020016001820154815250509050919050565b611656611962565b73ffffffffffffffffffffffffffffffffffffffff16611674611383565b73ffffffffffffffffffffffffffffffffffffffff16146116ca576040517f08c379a00000000000000000000000000000000000000000000000000000000081526004016116c1906120d7565b60405180910390fd5b600073ffffffffffffffffffffffffffffffffffffffff168173ffffffffffffffffffffffffffffffffffffffff1603611739576040517f08c379a0000000000000000000000000000000000000000000000000000000008152600401611730906129be565b60405180910390fd5b6117428161196a565b50565b61174d611962565b73ffffffffffffffffffffffffffffffffffffffff1661176b611383565b73ffffffffffffffffffffffffffffffffffffffff16146117c1576040517f08c379a00000000000000000000000000000000000000000000000000000000081526004016117b8906120d7565b60405180910390fd5b600060058111156117d5576117d4611e7a565b5b600360009054906101000a900460ff1660058111156117f7576117f6611e7a565b5b14611837576040517f08c379a000000000000000000000000000000000000000000000000000000000815260040161182e906128c0565b60405180910390fd5b60011515600560008373ffffffffffffffffffffffffffffffffffffffff1673ffffffffffffffffffffffffffffffffffffffff16815260200190815260200160002060000160009054906101000a900460ff161515036118cd576040517f08c379a00000000000000000000000000000000000000000000000000000000081526004016118c490612a2a565b60405180910390fd5b6001600560008373ffffffffffffffffffffffffffffffffffffffff1673ffffffffffffffffffffffffffffffffffffffff16815260200190815260200160002060000160006101000a81548160ff0219169083151502179055507fb6be2187d059cc2a55fe29e0e503b566e1e0f8c8780096e185429350acffd3dd816040516119579190611e5f565b60405180910390a150565b600033905090565b60008060009054906101000a900473ffffffffffffffffffffffffffffffffffffffff169050816000806101000a81548173ffffffffffffffffffffffffffffffffffffffff021916908373ffffffffffffffffffffffffffffffffffffffff1602179055508173ffffffffffffffffffffffffffffffffffffffff168173ffffffffffffffffffffffffffffffffffffffff167f8be0079c531659141344cd1fd0a4f28419497f9722a3daafe3b4186f6b6457e060405160405180910390a35050565b604051806040016040528060608152602001600081525090565b828054611a5490612683565b90600052602060002090601f016020900481019282611a765760008555611abd565b82601f10611a8f57805160ff1916838001178555611abd565b82800160010185558215611abd579182015b82811115611abc578251825591602001919060010190611aa1565b5b509050611aca9190611ba2565b5090565b6040518060a00160405280600590602082028036833780820191505090505090565b828054611afc90612683565b90600052602060002090601f016020900481019282611b1e5760008555611b6c565b82601f10611b2f5780548555611b6c565b82800160010185558215611b6c57600052602060002091601f016020900482015b82811115611b6b578254825591600101919060010190611b50565b5b509050611b799190611ba2565b5090565b6040518060600160405280600015158152602001600015158152602001600081525090565b5b80821115611bbb576000816000905550600101611ba3565b5090565b6000604051905090565b600080fd5b600080fd5b6000819050919050565b611be681611bd3565b8114611bf157600080fd5b50565b600081359050611c0381611bdd565b92915050565b600060208284031215611c1f57611c1e611bc9565b5b6000611c2d84828501611bf4565b91505092915050565b600080fd5b600080fd5b6000601f19601f8301169050919050565b7f4e487b7100000000000000000000000000000000000000000000000000000000600052604160045260246000fd5b611c8982611c40565b810181811067ffffffffffffffff82111715611ca857611ca7611c51565b5b80604052505050565b6000611cbb611bbf565b9050611cc78282611c80565b919050565b600067ffffffffffffffff821115611ce757611ce6611c51565b5b611cf082611c40565b9050602081019050919050565b82818337600083830152505050565b6000611d1f611d1a84611ccc565b611cb1565b905082815260208101848484011115611d3b57611d3a611c3b565b5b611d46848285611cfd565b509392505050565b600082601f830112611d6357611d62611c36565b5b8135611d73848260208601611d0c565b91505092915050565b600060208284031215611d9257611d91611bc9565b5b600082013567ffffffffffffffff811115611db057611daf611bce565b5b611dbc84828501611d4e565b91505092915050565b600073ffffffffffffffffffffffffffffffffffffffff82169050919050565b6000611df082611dc5565b9050919050565b611e0081611de5565b8114611e0b57600080fd5b50565b600081359050611e1d81611df7565b92915050565b600060208284031215611e3957611e38611bc9565b5b6000611e4784828501611e0e565b91505092915050565b611e5981611de5565b82525050565b6000602082019050611e746000830184611e50565b92915050565b7f4e487b7100000000000000000000000000000000000000000000000000000000600052602160045260246000fd5b60068110611eba57611eb9611e7a565b5b50565b6000819050611ecb82611ea9565b919050565b6000611edb82611ebd565b9050919050565b611eeb81611ed0565b82525050565b6000602082019050611f066000830184611ee2565b92915050565b600081519050919050565b600082825260208201905092915050565b60005b83811015611f46578082015181840152602081019050611f2b565b83811115611f55576000848401525b50505050565b6000611f6682611f0c565b611f708185611f17565b9350611f80818560208601611f28565b611f8981611c40565b840191505092915050565b611f9d81611bd3565b82525050565b60006040830160008301518482036000860152611fc08282611f5b565b9150506020830151611fd56020860182611f94565b508091505092915050565b60006020820190508181036000830152611ffa8184611fa3565b905092915050565b60008115159050919050565b61201781612002565b82525050565b606082016000820151612033600085018261200e565b506020820151612046602085018261200e565b5060408201516120596040850182611f94565b50505050565b6000606082019050612074600083018461201d565b92915050565b600082825260208201905092915050565b7f4f776e61626c653a2063616c6c6572206973206e6f7420746865206f776e6572600082015250565b60006120c160208361207a565b91506120cc8261208b565b602082019050919050565b600060208201905081810360008301526120f0816120b4565b9050919050565b7f43757272656e7420737461747573206973206e6f7420766f74696e672073657360008201527f73696f6e20656e64656400000000000000000000000000000000000000000000602082015250565b6000612153602a8361207a565b915061215e826120f7565b604082019050919050565b6000602082019050818103600083015261218281612146565b9050919050565b7f4e487b7100000000000000000000000000000000000000000000000000000000600052603260045260246000fd5b7f4e487b7100000000000000000000000000000000000000000000000000000000600052601160045260246000fd5b60006121f282611bd3565b91507fffffffffffffffffffffffffffffffffffffffffffffffffffffffffffffffff8203612224576122236121b8565b5b600182019050919050565b60006040820190506122446000830185611ee2565b6122516020830184611ee2565b9392505050565b7f596f75277265206e6f74206120766f7465720000000000000000000000000000600082015250565b600061228e60128361207a565b915061229982612258565b602082019050919050565b600060208201905081810360008301526122bd81612281565b9050919050565b7f566f74696e672073657373696f6e20686176656e74207374617274656420796560008201527f7400000000000000000000000000000000000000000000000000000000000000602082015250565b600061232060218361207a565b915061232b826122c4565b604082019050919050565b6000602082019050818103600083015261234f81612313565b9050919050565b7f596f75206861766520616c726561647920766f74656400000000000000000000600082015250565b600061238c60168361207a565b915061239782612356565b602082019050919050565b600060208201905081810360008301526123bb8161237f565b9050919050565b7f50726f706f73616c206e6f7420666f756e640000000000000000000000000000600082015250565b60006123f860128361207a565b9150612403826123c2565b602082019050919050565b60006020820190508181036000830152612427816123eb565b9050919050565b61243781611bd3565b82525050565b60006040820190506124526000830185611e50565b61245f602083018461242e565b9392505050565b7f50726f706f73616c7320617265206e6f7420616c6c6f77656420796574000000600082015250565b600061249c601d8361207a565b91506124a782612466565b602082019050919050565b600060208201905081810360008301526124cb8161248f565b9050919050565b50565b60006124e260008361207a565b91506124ed826124d2565b600082019050919050565b60006020820190508181036000830152612511816124d5565b9050919050565b600061252382611f0c565b61252d818561207a565b935061253d818560208601611f28565b61254681611c40565b840191505092915050565b6000602082019050818103600083015261256b8184612518565b905092915050565b7f566f7573206e6520706f7576657a20706173206e65207269656e2070726f706f60008201527f7365720000000000000000000000000000000000000000000000000000000000602082015250565b60006125cf60238361207a565b91506125da82612573565b604082019050919050565b600060208201905081810360008301526125fe816125c2565b9050919050565b600061261082611bd3565b915061261b83611bd3565b92508282101561262e5761262d6121b8565b5b828203905092915050565b600060208201905061264e600083018461242e565b92915050565b7f4e487b7100000000000000000000000000000000000000000000000000000000600052602260045260246000fd5b6000600282049050600182168061269b57607f821691505b6020821081036126ae576126ad612654565b5b50919050565b7f62616420776f726b666c6f777374617475730000000000000000000000000000600082015250565b60006126ea60128361207a565b91506126f5826126b4565b602082019050919050565b60006020820190508181036000830152612719816126dd565b9050919050565b7f696c2066617574206c616e6365722074616c6c7920766f746573000000000000600082015250565b6000612756601a8361207a565b915061276182612720565b602082019050919050565b6000602082019050818103600083015261278581612749565b9050919050565b7f696c2066617574206c616e6365722074616c6c79766f74657300000000000000600082015250565b60006127c260198361207a565b91506127cd8261278c565b602082019050919050565b600060208201905081810360008301526127f1816127b5565b9050919050565b600061280382611bd3565b915061280e83611bd3565b9250827fffffffffffffffffffffffffffffffffffffffffffffffffffffffffffffffff03821115612843576128426121b8565b5b828201905092915050565b7f566f7465727320726567697374726174696f6e206973206e6f74206f70656e2060008201527f7965740000000000000000000000000000000000000000000000000000000000602082015250565b60006128aa60238361207a565b91506128b58261284e565b604082019050919050565b600060208201905081810360008301526128d98161289d565b9050919050565b7f4e6f7420726567697374657265642e0000000000000000000000000000000000600082015250565b6000612916600f8361207a565b9150612921826128e0565b602082019050919050565b6000602082019050818103600083015261294581612909565b9050919050565b7f4f776e61626c653a206e6577206f776e657220697320746865207a65726f206160008201527f6464726573730000000000000000000000000000000000000000000000000000602082015250565b60006129a860268361207a565b91506129b38261294c565b604082019050919050565b600060208201905081810360008301526129d78161299b565b9050919050565b7f416c726561647920726567697374657265640000000000000000000000000000600082015250565b6000612a1460128361207a565b9150612a1f826129de565b602082019050919050565b60006020820190508181036000830152612a4381612a07565b905091905056fea2646970667358221220cc732366866ca74c7434c8482e29728ee613dfd7fa79302d101057248838f90e64736f6c634300080d0033",
  "immutableReferences": {},
  "source": "// SPDX-License-Identifier: MIT\n\npragma solidity 0.8.13;\n\nimport \"../node_modules/@openzeppelin/contracts/access/Ownable.sol\";\n\n\ncontract Voting is Ownable {\n\n    uint[] winningProposalsID;\n    Proposal[] winningProposals;\n    \n    struct Voter {\n        bool isRegistered;\n        bool hasVoted;\n        uint votedProposalId;\n    }\n\n    struct Proposal {\n        string description;\n        uint voteCount;\n    }\n\n    enum  WorkflowStatus {\n        RegisteringVoters,\n        ProposalsRegistrationStarted,\n        ProposalsRegistrationEnded,\n        VotingSessionStarted,\n        VotingSessionEnded,\n        VotesTallied\n    }\n\n    WorkflowStatus public workflowStatus;\n    Proposal[] proposalsArray;\n    mapping (address => Voter) voters;\n\n\n    event VoterRegistered(address voterAddress); \n    event WorkflowStatusChange(WorkflowStatus previousStatus, WorkflowStatus newStatus);\n    event ProposalRegistered(uint proposalId);\n    event Voted (address voter, uint proposalId);\n\n    modifier onlyVoters() {\n        require(voters[msg.sender].isRegistered, \"You're not a voter\");\n        _;\n    }\n    \n    // on peut faire un modifier pour les tats\n\n    // ::::::::::::: GETTERS ::::::::::::: //\n\n    function getVoter(address _addr) external onlyVoters view returns (Voter memory) {\n        return voters[_addr];\n    }\n    \n    function getOneProposal(uint _id) external onlyVoters view returns (Proposal memory) {\n        return proposalsArray[_id];\n    }\n\n \n    // ::::::::::::: REGISTRATION ::::::::::::: // \n\n    function addVoter(address _addr) external onlyOwner {\n        require(workflowStatus == WorkflowStatus.RegisteringVoters, 'Voters registration is not open yet');\n        require(voters[_addr].isRegistered != true, 'Already registered');\n    \n        voters[_addr].isRegistered = true;\n        emit VoterRegistered(_addr);\n    }\n \n    \n    function deleteVoter(address _addr) external onlyOwner {\n        require(workflowStatus == WorkflowStatus.RegisteringVoters, 'Voters registration is not open yet');\n        require(voters[_addr].isRegistered == true, 'Not registered.');\n        voters[_addr].isRegistered = false;\n        emit VoterRegistered(_addr);\n    }\n\n    // ::::::::::::: PROPOSAL ::::::::::::: // \n\n    function addProposal(string memory _desc) external onlyVoters {\n        require(workflowStatus == WorkflowStatus.ProposalsRegistrationStarted, 'Proposals are not allowed yet');\n        require(keccak256(abi.encode(_desc)) != keccak256(abi.encode(\"\")), 'Vous ne pouvez pas ne rien proposer'); // facultatif\n        // voir que desc est different des autres\n\n        Proposal memory proposal;\n        proposal.description = _desc;\n        proposalsArray.push(proposal);\n        emit ProposalRegistered(proposalsArray.length-1);\n    }\n\n    // ::::::::::::: VOTE ::::::::::::: //\n\n    function setVote( uint _id) external onlyVoters {\n        require(workflowStatus == WorkflowStatus.VotingSessionStarted, 'Voting session havent started yet');\n        require(voters[msg.sender].hasVoted != true, 'You have already voted');\n        require(_id < proposalsArray.length, 'Proposal not found'); // pas oblig, et pas besoin du >0 car uint\n\n        voters[msg.sender].votedProposalId = _id;\n        voters[msg.sender].hasVoted = true;\n        proposalsArray[_id].voteCount++;\n\n        emit Voted(msg.sender, _id);\n    }\n\n    // ::::::::::::: STATE ::::::::::::: //\n\n    modifier checkWorkflowStatus(uint  _num) {\n        require (workflowStatus==WorkflowStatus(uint(_num)-1), \"bad workflowstatus\");\n        require (_num != 5, \"il faut lancer tally votes\");\n        _;\n      }\n    \n    function setWorkflowStatus(uint _num) external checkWorkflowStatus(_num) onlyOwner {\n        WorkflowStatus old = workflowStatus;\n        workflowStatus = WorkflowStatus(_num);\n        emit WorkflowStatusChange(old, workflowStatus);\n       } \n    \n    //ou \n\n    function nextWorkflowStatus() external onlyOwner{\n        require (uint(workflowStatus)!=4, \"il faut lancer tallyvotes\");\n        WorkflowStatus old = workflowStatus;\n        workflowStatus= WorkflowStatus(uint (workflowStatus) + 1);\n        emit WorkflowStatusChange(old, workflowStatus);\n    }\n        \n\n    function tallyVotesDraw() external onlyOwner {\n       require(workflowStatus == WorkflowStatus.VotingSessionEnded, \"Current status is not voting session ended\");\n        uint highestCount;\n        uint[5]memory winners; // egalite entre 5 personnes max\n        uint nbWinners;\n        for (uint i = 0; i < proposalsArray.length; i++) {\n            if (proposalsArray[i].voteCount == highestCount) {\n                winners[nbWinners]=i;\n                nbWinners++;\n            }\n            if (proposalsArray[i].voteCount > highestCount) {\n                delete winners;\n                winners[0]= i;\n                highestCount = proposalsArray[i].voteCount;\n                nbWinners=1;\n            }\n        }\n        for(uint j=0;j<nbWinners;j++){\n            winningProposalsID.push(winners[j]);\n            winningProposals.push(proposalsArray[winners[j]]);\n        }\n        workflowStatus = WorkflowStatus.VotesTallied;\n        emit WorkflowStatusChange(WorkflowStatus.VotingSessionEnded, WorkflowStatus.VotesTallied);\n    }\n\n\n// ou\n    function tallyDraw() external onlyOwner{\n       require(workflowStatus == WorkflowStatus.VotingSessionEnded, \"Current status is not voting session ended\");\n        uint highestCount;\n        \n        for (uint i = 0; i < proposalsArray.length; i++) {\n            if (proposalsArray[i].voteCount > highestCount) {\n                highestCount = proposalsArray[i].voteCount;\n            }\n        }\n        \n        for (uint j = 0; j < proposalsArray.length; j++) {\n            if (proposalsArray[j].voteCount == highestCount) {\n                winningProposalsID.push(j);\n            }\n        }\n\n        workflowStatus = WorkflowStatus.VotesTallied;\n        emit WorkflowStatusChange(WorkflowStatus.VotingSessionEnded, WorkflowStatus.VotesTallied);\n\n    }\n\n}",
  "sourcePath": "/home/adnane/projet2_testedVoteSystem/Developpeur-Ethereum-Template/4. Truffle & CI-CD/contracts/VotingPlus.sol",
  "compiler": {
    "name": "solc",
    "version": "0.8.13+commit.abaa5c0e.Emscripten.clang"
  },
  "schemaVersion": "3.4.7",
  "updatedAt": "2022-06-24T08:45:00.930Z",
  "networkType": "ethereum",
  "devdoc": {
    "kind": "dev",
    "methods": {
      "owner()": {
        "details": "Returns the address of the current owner."
      },
      "renounceOwnership()": {
        "details": "Leaves the contract without owner. It will not be possible to call `onlyOwner` functions anymore. Can only be called by the current owner. NOTE: Renouncing ownership will leave the contract without an owner, thereby removing any functionality that is only available to the owner."
      },
      "transferOwnership(address)": {
        "details": "Transfers ownership of the contract to a new account (`newOwner`). Can only be called by the current owner."
      }
    },
    "version": 1
  },
  "userdoc": {
    "kind": "user",
    "methods": {},
    "version": 1
  }
}