{
  "contractName": "Voting",
  "abi": [
    {
      "anonymous": false,
      "inputs": [
        {
          "indexed": true,
          "internalType": "address",
          "name": "previousOwner",
          "type": "address"
        },
        {
          "indexed": true,
          "internalType": "address",
          "name": "newOwner",
          "type": "address"
        }
      ],
      "name": "OwnershipTransferred",
      "type": "event"
    },
    {
      "anonymous": false,
      "inputs": [
        {
          "indexed": false,
          "internalType": "uint256",
          "name": "proposalId",
          "type": "uint256"
        }
      ],
      "name": "ProposalRegistered",
      "type": "event"
    },
    {
      "anonymous": false,
      "inputs": [
        {
          "indexed": false,
          "internalType": "address",
          "name": "voter",
          "type": "address"
        },
        {
          "indexed": false,
          "internalType": "uint256",
          "name": "proposalId",
          "type": "uint256"
        }
      ],
      "name": "Voted",
      "type": "event"
    },
    {
      "anonymous": false,
      "inputs": [
        {
          "indexed": false,
          "internalType": "address",
          "name": "voterAddress",
          "type": "address"
        }
      ],
      "name": "VoterRegistered",
      "type": "event"
    },
    {
      "anonymous": false,
      "inputs": [
        {
          "indexed": false,
          "internalType": "enum Voting.WorkflowStatus",
          "name": "previousStatus",
          "type": "uint8"
        },
        {
          "indexed": false,
          "internalType": "enum Voting.WorkflowStatus",
          "name": "newStatus",
          "type": "uint8"
        }
      ],
      "name": "WorkflowStatusChange",
      "type": "event"
    },
    {
      "inputs": [],
      "name": "owner",
      "outputs": [
        {
          "internalType": "address",
          "name": "",
          "type": "address"
        }
      ],
      "stateMutability": "view",
      "type": "function",
      "constant": true
    },
    {
      "inputs": [],
      "name": "renounceOwnership",
      "outputs": [],
      "stateMutability": "nonpayable",
      "type": "function"
    },
    {
      "inputs": [
        {
          "internalType": "address",
          "name": "newOwner",
          "type": "address"
        }
      ],
      "name": "transferOwnership",
      "outputs": [],
      "stateMutability": "nonpayable",
      "type": "function"
    },
    {
      "inputs": [],
      "name": "workflowStatus",
      "outputs": [
        {
          "internalType": "enum Voting.WorkflowStatus",
          "name": "",
          "type": "uint8"
        }
      ],
      "stateMutability": "view",
      "type": "function",
      "constant": true
    },
    {
      "inputs": [
        {
          "internalType": "address",
          "name": "_addr",
          "type": "address"
        }
      ],
      "name": "getVoter",
      "outputs": [
        {
          "components": [
            {
              "internalType": "bool",
              "name": "isRegistered",
              "type": "bool"
            },
            {
              "internalType": "bool",
              "name": "hasVoted",
              "type": "bool"
            },
            {
              "internalType": "uint256",
              "name": "votedProposalId",
              "type": "uint256"
            }
          ],
          "internalType": "struct Voting.Voter",
          "name": "",
          "type": "tuple"
        }
      ],
      "stateMutability": "view",
      "type": "function",
      "constant": true
    },
    {
      "inputs": [
        {
          "internalType": "uint256",
          "name": "_id",
          "type": "uint256"
        }
      ],
      "name": "getOneProposal",
      "outputs": [
        {
          "components": [
            {
              "internalType": "string",
              "name": "description",
              "type": "string"
            },
            {
              "internalType": "uint256",
              "name": "voteCount",
              "type": "uint256"
            }
          ],
          "internalType": "struct Voting.Proposal",
          "name": "",
          "type": "tuple"
        }
      ],
      "stateMutability": "view",
      "type": "function",
      "constant": true
    },
    {
      "inputs": [],
      "name": "getAllProposals",
      "outputs": [
        {
          "components": [
            {
              "internalType": "string",
              "name": "description",
              "type": "string"
            },
            {
              "internalType": "uint256",
              "name": "voteCount",
              "type": "uint256"
            }
          ],
          "internalType": "struct Voting.Proposal[]",
          "name": "",
          "type": "tuple[]"
        }
      ],
      "stateMutability": "view",
      "type": "function",
      "constant": true
    },
    {
      "inputs": [],
      "name": "getWinningProposalsID",
      "outputs": [
        {
          "internalType": "uint256[]",
          "name": "",
          "type": "uint256[]"
        }
      ],
      "stateMutability": "view",
      "type": "function",
      "constant": true
    },
    {
      "inputs": [
        {
          "internalType": "address",
          "name": "_addr",
          "type": "address"
        }
      ],
      "name": "addVoter",
      "outputs": [],
      "stateMutability": "nonpayable",
      "type": "function"
    },
    {
      "inputs": [
        {
          "internalType": "address",
          "name": "_addr",
          "type": "address"
        }
      ],
      "name": "deleteVoter",
      "outputs": [],
      "stateMutability": "nonpayable",
      "type": "function"
    },
    {
      "inputs": [
        {
          "internalType": "string",
          "name": "_desc",
          "type": "string"
        }
      ],
      "name": "addProposal",
      "outputs": [],
      "stateMutability": "nonpayable",
      "type": "function"
    },
    {
      "inputs": [
        {
          "internalType": "uint256",
          "name": "_id",
          "type": "uint256"
        }
      ],
      "name": "setVote",
      "outputs": [],
      "stateMutability": "nonpayable",
      "type": "function"
    },
    {
      "inputs": [
        {
          "internalType": "uint256",
          "name": "_num",
          "type": "uint256"
        }
      ],
      "name": "setWorkflowStatus",
      "outputs": [],
      "stateMutability": "nonpayable",
      "type": "function"
    },
    {
      "inputs": [],
      "name": "nextWorkflowStatus",
      "outputs": [],
      "stateMutability": "nonpayable",
      "type": "function"
    },
    {
      "inputs": [],
      "name": "tallyVotesDraw",
      "outputs": [],
      "stateMutability": "nonpayable",
      "type": "function"
    },
    {
      "inputs": [],
      "name": "tallyDraw",
      "outputs": [],
      "stateMutability": "nonpayable",
      "type": "function"
    }
  ],
  "bytecode": "0x60806040523480156200001157600080fd5b5062000032620000266200003860201b60201c565b6200004060201b60201c565b62000104565b600033905090565b60008060009054906101000a900473ffffffffffffffffffffffffffffffffffffffff169050816000806101000a81548173ffffffffffffffffffffffffffffffffffffffff021916908373ffffffffffffffffffffffffffffffffffffffff1602179055508173ffffffffffffffffffffffffffffffffffffffff168173ffffffffffffffffffffffffffffffffffffffff167f8be0079c531659141344cd1fd0a4f28419497f9722a3daafe3b4186f6b6457e060405160405180910390a35050565b612ce880620001146000396000f3fe608060405234801561001057600080fd5b50600436106101005760003560e01c806388e1c73911610097578063cceb68f511610066578063cceb68f514610227578063d4f50f9814610245578063f2fde38b14610275578063f4ab9adf1461029157610100565b806388e1c7391461019f5780638da5cb5b146101bb578063a1edffa2146101d9578063a2788cce146101f757610100565b8063424f80db116100d3578063424f80db146101515780635774982f1461016d578063715018a61461018b578063754062841461019557610100565b806319a59b6414610105578063230796ae1461010f5780632fdae3c51461012b5780633beee92e14610147575b600080fd5b61010d6102ad565b005b61012960048036038101906101249190611bed565b61048d565b005b61014560048036038101906101409190611d60565b610788565b005b61014f6109cb565b005b61016b60048036038101906101669190611bed565b610cb0565b005b610175610e6f565b6040516101829190611e67565b60405180910390f35b610193610f56565b005b61019d610f6a565b005b6101b960048036038101906101b49190611ee7565b61109e565b005b6101c3611247565b6040516101d09190611f23565b60405180910390f35b6101e1611270565b6040516101ee9190611fb5565b60405180910390f35b610211600480360381019061020c9190611bed565b611283565b60405161021e9190612095565b60405180910390f35b61022f6113ea565b60405161023c91906121b6565b60405180910390f35b61025f600480360381019061025a9190611ee7565b611574565b60405161026c9190612235565b60405180910390f35b61028f600480360381019061028a9190611ee7565b61169c565b005b6102ab60048036038101906102a69190611ee7565b61171f565b005b6102b56118c8565b600460058111156102c9576102c8611f3e565b5b600360009054906101000a900460ff1660058111156102eb576102ea611f3e565b5b1461032b576040517f08c379a0000000000000000000000000000000000000000000000000000000008152600401610322906122d3565b60405180910390fd5b600080600090505b6004805490508110156103a9578160048281548110610355576103546122f3565b5b90600052602060002090600202016001015411156103965760048181548110610381576103806122f3565b5b90600052602060002090600202016001015491505b80806103a190612351565b915050610333565b5060005b6004805490508110156104235781600482815481106103cf576103ce6122f3565b5b906000526020600020906002020160010154036104105760018190806001815401808255809150506001900390600052602060002001600090919091909150555b808061041b90612351565b9150506103ad565b506005600360006101000a81548160ff0219169083600581111561044a57610449611f3e565b5b02179055507f0a97a4ee45751e2abf3e4fc8946939630b11b371ea8ae39ccdc3056e98f5cc3f60046005604051610482929190612399565b60405180910390a150565b600560003373ffffffffffffffffffffffffffffffffffffffff1673ffffffffffffffffffffffffffffffffffffffff16815260200190815260200160002060000160009054906101000a900460ff1661051c576040517f08c379a00000000000000000000000000000000000000000000000000000000081526004016105139061240e565b60405180910390fd5b600360058111156105305761052f611f3e565b5b600360009054906101000a900460ff16600581111561055257610551611f3e565b5b14610592576040517f08c379a0000000000000000000000000000000000000000000000000000000008152600401610589906124a0565b60405180910390fd5b60011515600560003373ffffffffffffffffffffffffffffffffffffffff1673ffffffffffffffffffffffffffffffffffffffff16815260200190815260200160002060000160019054906101000a900460ff16151503610628576040517f08c379a000000000000000000000000000000000000000000000000000000000815260040161061f9061250c565b60405180910390fd5b600480549050811061066f576040517f08c379a000000000000000000000000000000000000000000000000000000000815260040161066690612578565b60405180910390fd5b80600560003373ffffffffffffffffffffffffffffffffffffffff1673ffffffffffffffffffffffffffffffffffffffff168152602001908152602001600020600101819055506001600560003373ffffffffffffffffffffffffffffffffffffffff1673ffffffffffffffffffffffffffffffffffffffff16815260200190815260200160002060000160016101000a81548160ff02191690831515021790555060048181548110610725576107246122f3565b5b9060005260206000209060020201600101600081548092919061074790612351565b91905055507f4d99b957a2bc29a30ebd96a7be8e68fe50a3c701db28a91436490b7d53870ca4338260405161077d9291906125a7565b60405180910390a150565b600560003373ffffffffffffffffffffffffffffffffffffffff1673ffffffffffffffffffffffffffffffffffffffff16815260200190815260200160002060000160009054906101000a900460ff16610817576040517f08c379a000000000000000000000000000000000000000000000000000000000815260040161080e9061240e565b60405180910390fd5b6001600581111561082b5761082a611f3e565b5b600360009054906101000a900460ff16600581111561084d5761084c611f3e565b5b1461088d576040517f08c379a00000000000000000000000000000000000000000000000000000000081526004016108849061261c565b60405180910390fd5b60405160200161089c90612662565b60405160208183030381529060405280519060200120816040516020016108c391906126bb565b6040516020818303038152906040528051906020012003610919576040517f08c379a00000000000000000000000000000000000000000000000000000000081526004016109109061274f565b60405180910390fd5b610921611a12565b81816000018190525060048190806001815401808255809150506001900390600052602060002090600202016000909190919091506000820151816000019080519060200190610972929190611a2c565b506020820151816001015550507f92e393e9b54e2f801d3ea4beb0c5e71a21cc34a5d34b77d0fb8a3aa1650dc18f60016004805490506109b2919061276f565b6040516109bf91906127a3565b60405180910390a15050565b6109d36118c8565b600460058111156109e7576109e6611f3e565b5b600360009054906101000a900460ff166005811115610a0957610a08611f3e565b5b14610a49576040517f08c379a0000000000000000000000000000000000000000000000000000000008152600401610a40906122d3565b60405180910390fd5b6000610a53611ab2565b600080600090505b600480549050811015610b55578360048281548110610a7d57610a7c6122f3565b5b90600052602060002090600202016001015403610ac05780838360058110610aa857610aa76122f3565b5b6020020181815250508180610abc90612351565b9250505b8360048281548110610ad557610ad46122f3565b5b9060005260206000209060020201600101541115610b4257610af5611ab2565b92508083600060058110610b0c57610b0b6122f3565b5b60200201818152505060048181548110610b2957610b286122f3565b5b9060005260206000209060020201600101549350600191505b8080610b4d90612351565b915050610a5b565b5060005b81811015610c44576001838260058110610b7657610b756122f3565b5b6020020151908060018154018082558091505060019003906000526020600020016000909190919091505560026004848360058110610bb857610bb76122f3565b5b602002015181548110610bce57610bcd6122f3565b5b906000526020600020906002020190806001815401808255809150506001900390600052602060002090600202016000909190919091506000820181600001908054610c19906127ed565b610c24929190611ad4565b506001820154816001015550508080610c3c90612351565b915050610b59565b506005600360006101000a81548160ff02191690836005811115610c6b57610c6a611f3e565b5b02179055507f0a97a4ee45751e2abf3e4fc8946939630b11b371ea8ae39ccdc3056e98f5cc3f60046005604051610ca3929190612399565b60405180910390a1505050565b8060008103610cf4576040517f08c379a0000000000000000000000000000000000000000000000000000000008152600401610ceb90612890565b60405180910390fd5b600181610d01919061276f565b6005811115610d1357610d12611f3e565b5b6005811115610d2557610d24611f3e565b5b600360009054906101000a900460ff166005811115610d4757610d46611f3e565b5b14610d87576040517f08c379a0000000000000000000000000000000000000000000000000000000008152600401610d7e906128fc565b60405180910390fd5b60058103610dca576040517f08c379a0000000000000000000000000000000000000000000000000000000008152600401610dc190612968565b60405180910390fd5b610dd26118c8565b6000600360009054906101000a900460ff169050826005811115610df957610df8611f3e565b5b600360006101000a81548160ff02191690836005811115610e1d57610e1c611f3e565b5b02179055507f0a97a4ee45751e2abf3e4fc8946939630b11b371ea8ae39ccdc3056e98f5cc3f81600360009054906101000a900460ff16604051610e62929190612399565b60405180910390a1505050565b6060600560003373ffffffffffffffffffffffffffffffffffffffff1673ffffffffffffffffffffffffffffffffffffffff16815260200190815260200160002060000160009054906101000a900460ff16610f00576040517f08c379a0000000000000000000000000000000000000000000000000000000008152600401610ef79061240e565b60405180910390fd5b6001805480602002602001604051908101604052809291908181526020018280548015610f4c57602002820191906000526020600020905b815481526020019060010190808311610f38575b5050505050905090565b610f5e6118c8565b610f686000611946565b565b610f726118c8565b6004600360009054906101000a900460ff166005811115610f9657610f95611f3e565b5b03610fd6576040517f08c379a0000000000000000000000000000000000000000000000000000000008152600401610fcd906129d4565b60405180910390fd5b6000600360009054906101000a900460ff1690506001600360009054906101000a900460ff16600581111561100e5761100d611f3e565b5b61101891906129f4565b600581111561102a57611029611f3e565b5b600360006101000a81548160ff0219169083600581111561104e5761104d611f3e565b5b02179055507f0a97a4ee45751e2abf3e4fc8946939630b11b371ea8ae39ccdc3056e98f5cc3f81600360009054906101000a900460ff16604051611093929190612399565b60405180910390a150565b6110a66118c8565b600060058111156110ba576110b9611f3e565b5b600360009054906101000a900460ff1660058111156110dc576110db611f3e565b5b1461111c576040517f08c379a000000000000000000000000000000000000000000000000000000000815260040161111390612abc565b60405180910390fd5b60011515600560008373ffffffffffffffffffffffffffffffffffffffff1673ffffffffffffffffffffffffffffffffffffffff16815260200190815260200160002060000160009054906101000a900460ff161515146111b2576040517f08c379a00000000000000000000000000000000000000000000000000000000081526004016111a990612b28565b60405180910390fd5b6000600560008373ffffffffffffffffffffffffffffffffffffffff1673ffffffffffffffffffffffffffffffffffffffff16815260200190815260200160002060000160006101000a81548160ff0219169083151502179055507fb6be2187d059cc2a55fe29e0e503b566e1e0f8c8780096e185429350acffd3dd8160405161123c9190611f23565b60405180910390a150565b60008060009054906101000a900473ffffffffffffffffffffffffffffffffffffffff16905090565b600360009054906101000a900460ff1681565b61128b611a12565b600560003373ffffffffffffffffffffffffffffffffffffffff1673ffffffffffffffffffffffffffffffffffffffff16815260200190815260200160002060000160009054906101000a900460ff1661131a576040517f08c379a00000000000000000000000000000000000000000000000000000000081526004016113119061240e565b60405180910390fd5b6004828154811061132e5761132d6122f3565b5b9060005260206000209060020201604051806040016040529081600082018054611357906127ed565b80601f0160208091040260200160405190810160405280929190818152602001828054611383906127ed565b80156113d05780601f106113a5576101008083540402835291602001916113d0565b820191906000526020600020905b8154815290600101906020018083116113b357829003601f168201915b505050505081526020016001820154815250509050919050565b6060600560003373ffffffffffffffffffffffffffffffffffffffff1673ffffffffffffffffffffffffffffffffffffffff16815260200190815260200160002060000160009054906101000a900460ff1661147b576040517f08c379a00000000000000000000000000000000000000000000000000000000081526004016114729061240e565b60405180910390fd5b6004805480602002602001604051908101604052809291908181526020016000905b8282101561156b57838290600052602060002090600202016040518060400160405290816000820180546114d0906127ed565b80601f01602080910402602001604051908101604052809291908181526020018280546114fc906127ed565b80156115495780601f1061151e57610100808354040283529160200191611549565b820191906000526020600020905b81548152906001019060200180831161152c57829003601f168201915b505050505081526020016001820154815250508152602001906001019061149d565b50505050905090565b61157c611b61565b600560003373ffffffffffffffffffffffffffffffffffffffff1673ffffffffffffffffffffffffffffffffffffffff16815260200190815260200160002060000160009054906101000a900460ff1661160b576040517f08c379a00000000000000000000000000000000000000000000000000000000081526004016116029061240e565b60405180910390fd5b600560008373ffffffffffffffffffffffffffffffffffffffff1673ffffffffffffffffffffffffffffffffffffffff1681526020019081526020016000206040518060600160405290816000820160009054906101000a900460ff161515151581526020016000820160019054906101000a900460ff161515151581526020016001820154815250509050919050565b6116a46118c8565b600073ffffffffffffffffffffffffffffffffffffffff168173ffffffffffffffffffffffffffffffffffffffff1603611713576040517f08c379a000000000000000000000000000000000000000000000000000000000815260040161170a90612bba565b60405180910390fd5b61171c81611946565b50565b6117276118c8565b6000600581111561173b5761173a611f3e565b5b600360009054906101000a900460ff16600581111561175d5761175c611f3e565b5b1461179d576040517f08c379a000000000000000000000000000000000000000000000000000000000815260040161179490612abc565b60405180910390fd5b60011515600560008373ffffffffffffffffffffffffffffffffffffffff1673ffffffffffffffffffffffffffffffffffffffff16815260200190815260200160002060000160009054906101000a900460ff16151503611833576040517f08c379a000000000000000000000000000000000000000000000000000000000815260040161182a90612c26565b60405180910390fd5b6001600560008373ffffffffffffffffffffffffffffffffffffffff1673ffffffffffffffffffffffffffffffffffffffff16815260200190815260200160002060000160006101000a81548160ff0219169083151502179055507fb6be2187d059cc2a55fe29e0e503b566e1e0f8c8780096e185429350acffd3dd816040516118bd9190611f23565b60405180910390a150565b6118d0611a0a565b73ffffffffffffffffffffffffffffffffffffffff166118ee611247565b73ffffffffffffffffffffffffffffffffffffffff1614611944576040517f08c379a000000000000000000000000000000000000000000000000000000000815260040161193b90612c92565b60405180910390fd5b565b60008060009054906101000a900473ffffffffffffffffffffffffffffffffffffffff169050816000806101000a81548173ffffffffffffffffffffffffffffffffffffffff021916908373ffffffffffffffffffffffffffffffffffffffff1602179055508173ffffffffffffffffffffffffffffffffffffffff168173ffffffffffffffffffffffffffffffffffffffff167f8be0079c531659141344cd1fd0a4f28419497f9722a3daafe3b4186f6b6457e060405160405180910390a35050565b600033905090565b604051806040016040528060608152602001600081525090565b828054611a38906127ed565b90600052602060002090601f016020900481019282611a5a5760008555611aa1565b82601f10611a7357805160ff1916838001178555611aa1565b82800160010185558215611aa1579182015b82811115611aa0578251825591602001919060010190611a85565b5b509050611aae9190611b86565b5090565b6040518060a00160405280600590602082028036833780820191505090505090565b828054611ae0906127ed565b90600052602060002090601f016020900481019282611b025760008555611b50565b82601f10611b135780548555611b50565b82800160010185558215611b5057600052602060002091601f016020900482015b82811115611b4f578254825591600101919060010190611b34565b5b509050611b5d9190611b86565b5090565b6040518060600160405280600015158152602001600015158152602001600081525090565b5b80821115611b9f576000816000905550600101611b87565b5090565b6000604051905090565b600080fd5b600080fd5b6000819050919050565b611bca81611bb7565b8114611bd557600080fd5b50565b600081359050611be781611bc1565b92915050565b600060208284031215611c0357611c02611bad565b5b6000611c1184828501611bd8565b91505092915050565b600080fd5b600080fd5b6000601f19601f8301169050919050565b7f4e487b7100000000000000000000000000000000000000000000000000000000600052604160045260246000fd5b611c6d82611c24565b810181811067ffffffffffffffff82111715611c8c57611c8b611c35565b5b80604052505050565b6000611c9f611ba3565b9050611cab8282611c64565b919050565b600067ffffffffffffffff821115611ccb57611cca611c35565b5b611cd482611c24565b9050602081019050919050565b82818337600083830152505050565b6000611d03611cfe84611cb0565b611c95565b905082815260208101848484011115611d1f57611d1e611c1f565b5b611d2a848285611ce1565b509392505050565b600082601f830112611d4757611d46611c1a565b5b8135611d57848260208601611cf0565b91505092915050565b600060208284031215611d7657611d75611bad565b5b600082013567ffffffffffffffff811115611d9457611d93611bb2565b5b611da084828501611d32565b91505092915050565b600081519050919050565b600082825260208201905092915050565b6000819050602082019050919050565b611dde81611bb7565b82525050565b6000611df08383611dd5565b60208301905092915050565b6000602082019050919050565b6000611e1482611da9565b611e1e8185611db4565b9350611e2983611dc5565b8060005b83811015611e5a578151611e418882611de4565b9750611e4c83611dfc565b925050600181019050611e2d565b5085935050505092915050565b60006020820190508181036000830152611e818184611e09565b905092915050565b600073ffffffffffffffffffffffffffffffffffffffff82169050919050565b6000611eb482611e89565b9050919050565b611ec481611ea9565b8114611ecf57600080fd5b50565b600081359050611ee181611ebb565b92915050565b600060208284031215611efd57611efc611bad565b5b6000611f0b84828501611ed2565b91505092915050565b611f1d81611ea9565b82525050565b6000602082019050611f386000830184611f14565b92915050565b7f4e487b7100000000000000000000000000000000000000000000000000000000600052602160045260246000fd5b60068110611f7e57611f7d611f3e565b5b50565b6000819050611f8f82611f6d565b919050565b6000611f9f82611f81565b9050919050565b611faf81611f94565b82525050565b6000602082019050611fca6000830184611fa6565b92915050565b600081519050919050565b600082825260208201905092915050565b60005b8381101561200a578082015181840152602081019050611fef565b83811115612019576000848401525b50505050565b600061202a82611fd0565b6120348185611fdb565b9350612044818560208601611fec565b61204d81611c24565b840191505092915050565b60006040830160008301518482036000860152612075828261201f565b915050602083015161208a6020860182611dd5565b508091505092915050565b600060208201905081810360008301526120af8184612058565b905092915050565b600081519050919050565b600082825260208201905092915050565b6000819050602082019050919050565b60006040830160008301518482036000860152612100828261201f565b91505060208301516121156020860182611dd5565b508091505092915050565b600061212c83836120e3565b905092915050565b6000602082019050919050565b600061214c826120b7565b61215681856120c2565b935083602082028501612168856120d3565b8060005b858110156121a457848403895281516121858582612120565b945061219083612134565b925060208a0199505060018101905061216c565b50829750879550505050505092915050565b600060208201905081810360008301526121d08184612141565b905092915050565b60008115159050919050565b6121ed816121d8565b82525050565b60608201600082015161220960008501826121e4565b50602082015161221c60208501826121e4565b50604082015161222f6040850182611dd5565b50505050565b600060608201905061224a60008301846121f3565b92915050565b600082825260208201905092915050565b7f43757272656e7420737461747573206973206e6f7420766f74696e672073657360008201527f73696f6e20656e64656400000000000000000000000000000000000000000000602082015250565b60006122bd602a83612250565b91506122c882612261565b604082019050919050565b600060208201905081810360008301526122ec816122b0565b9050919050565b7f4e487b7100000000000000000000000000000000000000000000000000000000600052603260045260246000fd5b7f4e487b7100000000000000000000000000000000000000000000000000000000600052601160045260246000fd5b600061235c82611bb7565b91507fffffffffffffffffffffffffffffffffffffffffffffffffffffffffffffffff820361238e5761238d612322565b5b600182019050919050565b60006040820190506123ae6000830185611fa6565b6123bb6020830184611fa6565b9392505050565b7f596f75277265206e6f74206120766f7465720000000000000000000000000000600082015250565b60006123f8601283612250565b9150612403826123c2565b602082019050919050565b60006020820190508181036000830152612427816123eb565b9050919050565b7f566f74696e672073657373696f6e20686176656e74207374617274656420796560008201527f7400000000000000000000000000000000000000000000000000000000000000602082015250565b600061248a602183612250565b91506124958261242e565b604082019050919050565b600060208201905081810360008301526124b98161247d565b9050919050565b7f596f75206861766520616c726561647920766f74656400000000000000000000600082015250565b60006124f6601683612250565b9150612501826124c0565b602082019050919050565b60006020820190508181036000830152612525816124e9565b9050919050565b7f50726f706f73616c206e6f7420666f756e640000000000000000000000000000600082015250565b6000612562601283612250565b915061256d8261252c565b602082019050919050565b6000602082019050818103600083015261259181612555565b9050919050565b6125a181611bb7565b82525050565b60006040820190506125bc6000830185611f14565b6125c96020830184612598565b9392505050565b7f50726f706f73616c7320617265206e6f7420616c6c6f77656420796574000000600082015250565b6000612606601d83612250565b9150612611826125d0565b602082019050919050565b60006020820190508181036000830152612635816125f9565b9050919050565b50565b600061264c600083612250565b91506126578261263c565b600082019050919050565b6000602082019050818103600083015261267b8161263f565b9050919050565b600061268d82611fd0565b6126978185612250565b93506126a7818560208601611fec565b6126b081611c24565b840191505092915050565b600060208201905081810360008301526126d58184612682565b905092915050565b7f566f7573206e6520706f7576657a20706173206e65207269656e2070726f706f60008201527f7365720000000000000000000000000000000000000000000000000000000000602082015250565b6000612739602383612250565b9150612744826126dd565b604082019050919050565b600060208201905081810360008301526127688161272c565b9050919050565b600061277a82611bb7565b915061278583611bb7565b92508282101561279857612797612322565b5b828203905092915050565b60006020820190506127b86000830184612598565b92915050565b7f4e487b7100000000000000000000000000000000000000000000000000000000600052602260045260246000fd5b6000600282049050600182168061280557607f821691505b602082108103612818576128176127be565b5b50919050565b7f4e6f7420706f737369626c6520746f20676574206261636b20746f207468652060008201527f6f726967696e616c207374617465000000000000000000000000000000000000602082015250565b600061287a602e83612250565b91506128858261281e565b604082019050919050565b600060208201905081810360008301526128a98161286d565b9050919050565b7f62616420776f726b666c6f777374617475730000000000000000000000000000600082015250565b60006128e6601283612250565b91506128f1826128b0565b602082019050919050565b60006020820190508181036000830152612915816128d9565b9050919050565b7f696c2066617574206c616e6365722074616c6c7920766f746573000000000000600082015250565b6000612952601a83612250565b915061295d8261291c565b602082019050919050565b6000602082019050818103600083015261298181612945565b9050919050565b7f696c2066617574206c616e6365722074616c6c79766f74657300000000000000600082015250565b60006129be601983612250565b91506129c982612988565b602082019050919050565b600060208201905081810360008301526129ed816129b1565b9050919050565b60006129ff82611bb7565b9150612a0a83611bb7565b9250827fffffffffffffffffffffffffffffffffffffffffffffffffffffffffffffffff03821115612a3f57612a3e612322565b5b828201905092915050565b7f566f7465727320726567697374726174696f6e206973206e6f74206f70656e2060008201527f7965740000000000000000000000000000000000000000000000000000000000602082015250565b6000612aa6602383612250565b9150612ab182612a4a565b604082019050919050565b60006020820190508181036000830152612ad581612a99565b9050919050565b7f4e6f7420726567697374657265642e0000000000000000000000000000000000600082015250565b6000612b12600f83612250565b9150612b1d82612adc565b602082019050919050565b60006020820190508181036000830152612b4181612b05565b9050919050565b7f4f776e61626c653a206e6577206f776e657220697320746865207a65726f206160008201527f6464726573730000000000000000000000000000000000000000000000000000602082015250565b6000612ba4602683612250565b9150612baf82612b48565b604082019050919050565b60006020820190508181036000830152612bd381612b97565b9050919050565b7f416c726561647920726567697374657265640000000000000000000000000000600082015250565b6000612c10601283612250565b9150612c1b82612bda565b602082019050919050565b60006020820190508181036000830152612c3f81612c03565b9050919050565b7f4f776e61626c653a2063616c6c6572206973206e6f7420746865206f776e6572600082015250565b6000612c7c602083612250565b9150612c8782612c46565b602082019050919050565b60006020820190508181036000830152612cab81612c6f565b905091905056fea26469706673582212200b477f279b743698c05c2ef998cc72a81406c6901716b8470f2f30d0d844157a64736f6c634300080e0033",
  "immutableReferences": {},
  "source": "// SPDX-License-Identifier: MIT\n\npragma solidity 0.8.14;\n\nimport \"../node_modules/@openzeppelin/contracts/access/Ownable.sol\";\n\n\ncontract Voting is Ownable {\n\n    uint[] winningProposalsID;\n    Proposal[] winningProposals;\n    \n    struct Voter {\n        bool isRegistered;\n        bool hasVoted;\n        uint votedProposalId;\n    }\n\n    struct Proposal {\n        string description;\n        uint voteCount;\n    }\n\n    enum  WorkflowStatus {\n        RegisteringVoters,\n        ProposalsRegistrationStarted,\n        ProposalsRegistrationEnded,\n        VotingSessionStarted,\n        VotingSessionEnded,\n        VotesTallied\n    }\n\n    WorkflowStatus public workflowStatus;\n    Proposal[] proposalsArray;\n    mapping (address => Voter) voters;\n\n\n    event VoterRegistered(address voterAddress); \n    event WorkflowStatusChange(WorkflowStatus previousStatus, WorkflowStatus newStatus);\n    event ProposalRegistered(uint proposalId);\n    event Voted (address voter, uint proposalId);\n\n    modifier onlyVoters() {\n        require(voters[msg.sender].isRegistered, \"You're not a voter\");\n        _;\n    }\n    \n    // on peut faire un modifier pour les tats\n\n    // ::::::::::::: GETTERS ::::::::::::: //\n\n    function getVoter(address _addr) external onlyVoters view returns (Voter memory) {\n        return voters[_addr];\n    }\n    \n    function getOneProposal(uint _id) external onlyVoters view returns (Proposal memory) {\n        return proposalsArray[_id];\n    }\n    //this getters have been added in order to perform some specific assertion style testing or \n    function getAllProposals() external onlyVoters view returns (Proposal[] memory) {\n        return proposalsArray;\n    }\n    function getWinningProposalsID() external onlyVoters view returns (uint[] memory) {\n        return winningProposalsID;\n    }\n\n \n    // ::::::::::::: REGISTRATION ::::::::::::: // \n\n    function addVoter(address _addr) external onlyOwner {\n        require(workflowStatus == WorkflowStatus.RegisteringVoters, 'Voters registration is not open yet');\n        require(voters[_addr].isRegistered != true, 'Already registered');\n    \n        voters[_addr].isRegistered = true;\n        emit VoterRegistered(_addr);\n    }\n \n    \n    function deleteVoter(address _addr) external onlyOwner {\n        require(workflowStatus == WorkflowStatus.RegisteringVoters, 'Voters registration is not open yet');\n        require(voters[_addr].isRegistered == true, 'Not registered.');\n        voters[_addr].isRegistered = false;\n        emit VoterRegistered(_addr);\n    }\n\n    // ::::::::::::: PROPOSAL ::::::::::::: // \n\n    function addProposal(string memory _desc) external onlyVoters {\n        require(workflowStatus == WorkflowStatus.ProposalsRegistrationStarted, 'Proposals are not allowed yet');\n        require(keccak256(abi.encode(_desc)) != keccak256(abi.encode(\"\")), 'Vous ne pouvez pas ne rien proposer'); // facultatif\n        // voir que desc est different des autres\n\n        Proposal memory proposal;\n        proposal.description = _desc;\n        proposalsArray.push(proposal);\n        emit ProposalRegistered(proposalsArray.length-1);\n    }\n\n    // ::::::::::::: VOTE ::::::::::::: //\n\n    function setVote( uint _id) external onlyVoters {\n        require(workflowStatus == WorkflowStatus.VotingSessionStarted, 'Voting session havent started yet');\n        require(voters[msg.sender].hasVoted != true, 'You have already voted');\n        require(_id < proposalsArray.length, 'Proposal not found'); // pas oblig, et pas besoin du >0 car uint\n\n        voters[msg.sender].votedProposalId = _id;\n        voters[msg.sender].hasVoted = true;\n        proposalsArray[_id].voteCount++;\n\n        emit Voted(msg.sender, _id);\n    }\n\n    // ::::::::::::: STATE ::::::::::::: //\n\n    modifier checkWorkflowStatus(uint  _num) {\n        require (_num != 0, \"Not possible to get back to the original state\");\n        require (workflowStatus==WorkflowStatus(uint(_num)-1), \"bad workflowstatus\");\n        require (_num != 5, \"il faut lancer tally votes\");\n        _;\n      }\n    \n    function setWorkflowStatus(uint _num) external checkWorkflowStatus(_num) onlyOwner {\n        WorkflowStatus old = workflowStatus;\n        workflowStatus = WorkflowStatus(_num);\n        emit WorkflowStatusChange(old, workflowStatus);\n       } \n    \n    //ou \n\n    function nextWorkflowStatus() external onlyOwner{\n        require (uint(workflowStatus)!=4, \"il faut lancer tallyvotes\");\n        WorkflowStatus old = workflowStatus;\n        workflowStatus= WorkflowStatus(uint (workflowStatus) + 1);\n        emit WorkflowStatusChange(old, workflowStatus);\n    }\n        \n\n    function tallyVotesDraw() external onlyOwner {\n       require(workflowStatus == WorkflowStatus.VotingSessionEnded, \"Current status is not voting session ended\");\n        uint highestCount;\n        uint[5]memory winners; // egalite entre 5 personnes max\n        uint nbWinners;\n        for (uint i = 0; i < proposalsArray.length; i++) {\n            if (proposalsArray[i].voteCount == highestCount) {\n                winners[nbWinners]=i;\n                nbWinners++;\n            }\n            if (proposalsArray[i].voteCount > highestCount) {\n                delete winners;\n                winners[0]= i;\n                highestCount = proposalsArray[i].voteCount;\n                nbWinners=1;\n            }\n        }\n        for(uint j=0;j<nbWinners;j++){\n            winningProposalsID.push(winners[j]);\n            winningProposals.push(proposalsArray[winners[j]]);\n        }\n        workflowStatus = WorkflowStatus.VotesTallied;\n        emit WorkflowStatusChange(WorkflowStatus.VotingSessionEnded, WorkflowStatus.VotesTallied);\n    }\n\n\n// ou\n    function tallyDraw() external onlyOwner{\n       require(workflowStatus == WorkflowStatus.VotingSessionEnded, \"Current status is not voting session ended\");\n        uint highestCount;\n        \n        for (uint i = 0; i < proposalsArray.length; i++) {\n            if (proposalsArray[i].voteCount > highestCount) {\n                highestCount = proposalsArray[i].voteCount;\n            }\n        }\n        \n        for (uint j = 0; j < proposalsArray.length; j++) {\n            if (proposalsArray[j].voteCount == highestCount) {\n                winningProposalsID.push(j);\n            }\n        }\n\n        workflowStatus = WorkflowStatus.VotesTallied;\n        emit WorkflowStatusChange(WorkflowStatus.VotingSessionEnded, WorkflowStatus.VotesTallied);\n\n    }\n\n}",
  "sourcePath": "/home/adnane/projet2_testedVoteSystem/Developpeur-Ethereum-Template/6. Dapp/truffle/contracts/Voting.sol",
  "compiler": {
    "name": "solc",
    "version": "0.8.14+commit.80d49f37.Emscripten.clang"
  },
  "schemaVersion": "3.4.7",
  "updatedAt": "2022-07-11T07:46:37.347Z",
  "networkType": "ethereum",
  "devdoc": {
    "kind": "dev",
    "methods": {
      "owner()": {
        "details": "Returns the address of the current owner."
      },
      "renounceOwnership()": {
        "details": "Leaves the contract without owner. It will not be possible to call `onlyOwner` functions anymore. Can only be called by the current owner. NOTE: Renouncing ownership will leave the contract without an owner, thereby removing any functionality that is only available to the owner."
      },
      "transferOwnership(address)": {
        "details": "Transfers ownership of the contract to a new account (`newOwner`). Can only be called by the current owner."
      }
    },
    "version": 1
  },
  "userdoc": {
    "kind": "user",
    "methods": {},
    "version": 1
  }
}